{
  "_format": "hh-sol-artifact-1",
  "contractName": "PrimitiveAmm",
  "sourceName": "contracts/PrimitiveAmm.sol",
  "abi": [
    {
      "inputs": [],
      "stateMutability": "nonpayable",
      "type": "constructor"
    },
    {
      "anonymous": false,
      "inputs": [
        {
          "indexed": true,
          "internalType": "address",
          "name": "owner",
          "type": "address"
        },
        {
          "indexed": true,
          "internalType": "address",
          "name": "spender",
          "type": "address"
        },
        {
          "indexed": false,
          "internalType": "uint256",
          "name": "value",
          "type": "uint256"
        }
      ],
      "name": "Approval",
      "type": "event"
    },
    {
      "anonymous": false,
      "inputs": [
        {
          "indexed": true,
          "internalType": "address",
          "name": "from",
          "type": "address"
        },
        {
          "indexed": false,
          "internalType": "uint256",
          "name": "shortAmount",
          "type": "uint256"
        },
        {
          "indexed": false,
          "internalType": "uint256",
          "name": "underlyingAmount",
          "type": "uint256"
        },
        {
          "indexed": true,
          "internalType": "address",
          "name": "receiver",
          "type": "address"
        }
      ],
      "name": "Burn",
      "type": "event"
    },
    {
      "anonymous": false,
      "inputs": [
        {
          "indexed": true,
          "internalType": "address",
          "name": "from",
          "type": "address"
        },
        {
          "indexed": false,
          "internalType": "uint256",
          "name": "shortAmount",
          "type": "uint256"
        },
        {
          "indexed": false,
          "internalType": "uint256",
          "name": "underlyingAmount",
          "type": "uint256"
        }
      ],
      "name": "Mint",
      "type": "event"
    },
    {
      "anonymous": false,
      "inputs": [
        {
          "indexed": true,
          "internalType": "address",
          "name": "from",
          "type": "address"
        },
        {
          "indexed": false,
          "internalType": "uint256",
          "name": "shortAmount",
          "type": "uint256"
        },
        {
          "indexed": false,
          "internalType": "uint256",
          "name": "underlyingAmount",
          "type": "uint256"
        },
        {
          "indexed": true,
          "internalType": "address",
          "name": "receiver",
          "type": "address"
        }
      ],
      "name": "SwapFromShort",
      "type": "event"
    },
    {
      "anonymous": false,
      "inputs": [
        {
          "indexed": true,
          "internalType": "address",
          "name": "from",
          "type": "address"
        },
        {
          "indexed": false,
          "internalType": "uint256",
          "name": "shortAmount",
          "type": "uint256"
        },
        {
          "indexed": false,
          "internalType": "uint256",
          "name": "underlyingAmount",
          "type": "uint256"
        },
        {
          "indexed": true,
          "internalType": "address",
          "name": "receiver",
          "type": "address"
        }
      ],
      "name": "SwapToShort",
      "type": "event"
    },
    {
      "anonymous": false,
      "inputs": [
        {
          "indexed": true,
          "internalType": "address",
          "name": "from",
          "type": "address"
        },
        {
          "indexed": true,
          "internalType": "address",
          "name": "to",
          "type": "address"
        },
        {
          "indexed": false,
          "internalType": "uint256",
          "name": "value",
          "type": "uint256"
        }
      ],
      "name": "Transfer",
      "type": "event"
    },
    {
      "anonymous": false,
      "inputs": [
        {
          "indexed": false,
          "internalType": "uint256",
          "name": "postShortCache",
          "type": "uint256"
        },
        {
          "indexed": false,
          "internalType": "uint256",
          "name": "postUnderlyingCache",
          "type": "uint256"
        }
      ],
      "name": "UpdatedCaches",
      "type": "event"
    },
    {
      "inputs": [],
      "name": "DOMAIN_SEPARATOR",
      "outputs": [
        {
          "internalType": "bytes32",
          "name": "",
          "type": "bytes32"
        }
      ],
      "stateMutability": "view",
      "type": "function"
    },
    {
      "inputs": [],
      "name": "PERMIT_TYPEHASH",
      "outputs": [
        {
          "internalType": "bytes32",
          "name": "",
          "type": "bytes32"
        }
      ],
      "stateMutability": "view",
      "type": "function"
    },
    {
      "inputs": [
        {
          "internalType": "address",
          "name": "",
          "type": "address"
        },
        {
          "internalType": "address",
          "name": "",
          "type": "address"
        }
      ],
      "name": "allowance",
      "outputs": [
        {
          "internalType": "uint256",
          "name": "",
          "type": "uint256"
        }
      ],
      "stateMutability": "view",
      "type": "function"
    },
    {
      "inputs": [],
      "name": "anchor",
      "outputs": [
        {
          "internalType": "int256",
          "name": "",
          "type": "int256"
        }
      ],
      "stateMutability": "view",
      "type": "function"
    },
    {
      "inputs": [
        {
          "internalType": "address",
          "name": "spender",
          "type": "address"
        },
        {
          "internalType": "uint256",
          "name": "value",
          "type": "uint256"
        }
      ],
      "name": "approve",
      "outputs": [
        {
          "internalType": "bool",
          "name": "",
          "type": "bool"
        }
      ],
      "stateMutability": "nonpayable",
      "type": "function"
    },
    {
      "inputs": [
        {
          "internalType": "address",
          "name": "",
          "type": "address"
        }
      ],
      "name": "balanceOf",
      "outputs": [
        {
          "internalType": "uint256",
          "name": "",
          "type": "uint256"
        }
      ],
      "stateMutability": "view",
      "type": "function"
    },
    {
      "inputs": [
        {
          "internalType": "address",
          "name": "receiver",
          "type": "address"
        }
      ],
      "name": "burn",
      "outputs": [
        {
          "internalType": "uint256",
          "name": "shortAmount",
          "type": "uint256"
        },
        {
          "internalType": "uint256",
          "name": "underlyingAmount",
          "type": "uint256"
        }
      ],
      "stateMutability": "nonpayable",
      "type": "function"
    },
    {
      "inputs": [],
      "name": "decimals",
      "outputs": [
        {
          "internalType": "uint8",
          "name": "",
          "type": "uint8"
        }
      ],
      "stateMutability": "view",
      "type": "function"
    },
    {
      "inputs": [],
      "name": "getCaches",
      "outputs": [
        {
          "internalType": "uint256",
          "name": "",
          "type": "uint256"
        },
        {
          "internalType": "uint256",
          "name": "",
          "type": "uint256"
        }
      ],
      "stateMutability": "view",
      "type": "function"
    },
    {
      "inputs": [
        {
          "internalType": "uint256",
          "name": "amount",
          "type": "uint256"
        }
      ],
      "name": "getExchangeRateIn",
      "outputs": [
        {
          "internalType": "uint256",
          "name": "",
          "type": "uint256"
        }
      ],
      "stateMutability": "view",
      "type": "function"
    },
    {
      "inputs": [
        {
          "internalType": "uint256",
          "name": "amount",
          "type": "uint256"
        }
      ],
      "name": "getExchangeRateOut",
      "outputs": [
        {
          "internalType": "uint256",
          "name": "",
          "type": "uint256"
        }
      ],
      "stateMutability": "view",
      "type": "function"
    },
    {
      "inputs": [],
      "name": "getProportion",
      "outputs": [
        {
          "internalType": "uint256",
          "name": "",
          "type": "uint256"
        }
      ],
      "stateMutability": "view",
      "type": "function"
    },
    {
      "inputs": [
        {
          "internalType": "uint256",
          "name": "amount",
          "type": "uint256"
        }
      ],
      "name": "getShortProportionIn",
      "outputs": [
        {
          "internalType": "uint256",
          "name": "",
          "type": "uint256"
        }
      ],
      "stateMutability": "view",
      "type": "function"
    },
    {
      "inputs": [
        {
          "internalType": "uint256",
          "name": "amount",
          "type": "uint256"
        }
      ],
      "name": "getShortProportionOut",
      "outputs": [
        {
          "internalType": "uint256",
          "name": "",
          "type": "uint256"
        }
      ],
      "stateMutability": "view",
      "type": "function"
    },
    {
      "inputs": [
        {
          "internalType": "uint256",
          "name": "shortAmount",
          "type": "uint256"
        }
      ],
      "name": "getShortToUnderlyingQuote",
      "outputs": [
        {
          "internalType": "uint256",
          "name": "",
          "type": "uint256"
        }
      ],
      "stateMutability": "view",
      "type": "function"
    },
    {
      "inputs": [],
      "name": "getSpotExchangeRate",
      "outputs": [
        {
          "internalType": "uint256",
          "name": "",
          "type": "uint256"
        }
      ],
      "stateMutability": "view",
      "type": "function"
    },
    {
      "inputs": [],
      "name": "getSpotRate",
      "outputs": [
        {
          "internalType": "uint256",
          "name": "",
          "type": "uint256"
        }
      ],
      "stateMutability": "view",
      "type": "function"
    },
    {
      "inputs": [
        {
          "internalType": "uint256",
          "name": "shortAmount",
          "type": "uint256"
        }
      ],
      "name": "getUnderlyingToShortQuote",
      "outputs": [
        {
          "internalType": "uint256",
          "name": "",
          "type": "uint256"
        }
      ],
      "stateMutability": "view",
      "type": "function"
    },
    {
      "inputs": [
        {
          "internalType": "address",
          "name": "shortToken_",
          "type": "address"
        },
        {
          "internalType": "address",
          "name": "underlyingToken_",
          "type": "address"
        },
        {
          "internalType": "uint256",
          "name": "scalar_",
          "type": "uint256"
        },
        {
          "internalType": "uint256",
          "name": "anchor_",
          "type": "uint256"
        }
      ],
      "name": "initialize",
      "outputs": [],
      "stateMutability": "nonpayable",
      "type": "function"
    },
    {
      "inputs": [],
      "name": "liquidityFee",
      "outputs": [
        {
          "internalType": "uint32",
          "name": "",
          "type": "uint32"
        }
      ],
      "stateMutability": "view",
      "type": "function"
    },
    {
      "inputs": [
        {
          "internalType": "address",
          "name": "receiver",
          "type": "address"
        }
      ],
      "name": "mint",
      "outputs": [
        {
          "internalType": "uint256",
          "name": "liquidity",
          "type": "uint256"
        }
      ],
      "stateMutability": "nonpayable",
      "type": "function"
    },
    {
      "inputs": [],
      "name": "name",
      "outputs": [
        {
          "internalType": "string",
          "name": "",
          "type": "string"
        }
      ],
      "stateMutability": "view",
      "type": "function"
    },
    {
      "inputs": [
        {
          "internalType": "address",
          "name": "",
          "type": "address"
        }
      ],
      "name": "nonces",
      "outputs": [
        {
          "internalType": "uint256",
          "name": "",
          "type": "uint256"
        }
      ],
      "stateMutability": "view",
      "type": "function"
    },
    {
      "inputs": [
        {
          "internalType": "address",
          "name": "owner",
          "type": "address"
        },
        {
          "internalType": "address",
          "name": "spender",
          "type": "address"
        },
        {
          "internalType": "uint256",
          "name": "value",
          "type": "uint256"
        },
        {
          "internalType": "uint256",
          "name": "deadline",
          "type": "uint256"
        },
        {
          "internalType": "uint8",
          "name": "v",
          "type": "uint8"
        },
        {
          "internalType": "bytes32",
          "name": "r",
          "type": "bytes32"
        },
        {
          "internalType": "bytes32",
          "name": "s",
          "type": "bytes32"
        }
      ],
      "name": "permit",
      "outputs": [],
      "stateMutability": "nonpayable",
      "type": "function"
    },
    {
      "inputs": [],
      "name": "scalar",
      "outputs": [
        {
          "internalType": "int256",
          "name": "",
          "type": "int256"
        }
      ],
      "stateMutability": "view",
      "type": "function"
    },
    {
      "inputs": [],
      "name": "shortCache",
      "outputs": [
        {
          "internalType": "uint256",
          "name": "",
          "type": "uint256"
        }
      ],
      "stateMutability": "view",
      "type": "function"
    },
    {
      "inputs": [],
      "name": "shortToken",
      "outputs": [
        {
          "internalType": "address",
          "name": "",
          "type": "address"
        }
      ],
      "stateMutability": "view",
      "type": "function"
    },
    {
      "inputs": [
        {
          "internalType": "uint256",
          "name": "amountShortIn",
          "type": "uint256"
        },
        {
          "internalType": "address",
          "name": "receiver",
          "type": "address"
        }
      ],
      "name": "swapShortToUnderlying",
      "outputs": [
        {
          "internalType": "uint256",
          "name": "",
          "type": "uint256"
        },
        {
          "internalType": "bool",
          "name": "",
          "type": "bool"
        }
      ],
      "stateMutability": "nonpayable",
      "type": "function"
    },
    {
      "inputs": [
        {
          "internalType": "uint256",
          "name": "amountShortOut",
          "type": "uint256"
        },
        {
          "internalType": "address",
          "name": "receiver",
          "type": "address"
        }
      ],
      "name": "swapUnderlyingToShort",
      "outputs": [
        {
          "internalType": "uint256",
          "name": "",
          "type": "uint256"
        },
        {
          "internalType": "bool",
          "name": "",
          "type": "bool"
        }
      ],
      "stateMutability": "nonpayable",
      "type": "function"
    },
    {
      "inputs": [],
      "name": "symbol",
      "outputs": [
        {
          "internalType": "string",
          "name": "",
          "type": "string"
        }
      ],
      "stateMutability": "view",
      "type": "function"
    },
    {
      "inputs": [],
      "name": "totalSupply",
      "outputs": [
        {
          "internalType": "uint256",
          "name": "",
          "type": "uint256"
        }
      ],
      "stateMutability": "view",
      "type": "function"
    },
    {
      "inputs": [
        {
          "internalType": "address",
          "name": "to",
          "type": "address"
        },
        {
          "internalType": "uint256",
          "name": "value",
          "type": "uint256"
        }
      ],
      "name": "transfer",
      "outputs": [
        {
          "internalType": "bool",
          "name": "",
          "type": "bool"
        }
      ],
      "stateMutability": "nonpayable",
      "type": "function"
    },
    {
      "inputs": [
        {
          "internalType": "address",
          "name": "from",
          "type": "address"
        },
        {
          "internalType": "address",
          "name": "to",
          "type": "address"
        },
        {
          "internalType": "uint256",
          "name": "value",
          "type": "uint256"
        }
      ],
      "name": "transferFrom",
      "outputs": [
        {
          "internalType": "bool",
          "name": "",
          "type": "bool"
        }
      ],
      "stateMutability": "nonpayable",
      "type": "function"
    },
    {
      "inputs": [],
      "name": "underlyingCache",
      "outputs": [
        {
          "internalType": "uint256",
          "name": "",
          "type": "uint256"
        }
      ],
      "stateMutability": "view",
      "type": "function"
    },
    {
      "inputs": [],
      "name": "underlyingToken",
      "outputs": [
        {
          "internalType": "address",
          "name": "",
          "type": "address"
        }
      ],
      "stateMutability": "view",
      "type": "function"
    },
    {
      "inputs": [],
      "name": "updateCacheBalances",
      "outputs": [],
      "stateMutability": "nonpayable",
      "type": "function"
    }
  ],
  "bytecode": "0x608060405234801561001057600080fd5b50604080518082018252600c81526b5072696d697469766520563160a01b602091820152815180830183526001808252603160f81b9183019190915282517f8b73c3c69bb8fe3d512ecc4cf759cc79239f7b179b0ffacaa9a75d522b39400f818401527f662beda4fa4ec91056b67d9dd233c1a4363ea4b40c5c0824ddaa9721dfc09545818501527fc89efdaa54c0f20c7adf612882df0950f5a951637e0307cdcb4c672f298b8bc660608201524660808201523060a0808301919091528451808303909101815260c09091019093528251929091019190912060035560055561279a806100ff6000396000f3fe608060405234801561001057600080fd5b506004361061021c5760003560e01c806370a0823111610125578063a9059cbb116100ad578063dd62ed3e1161007c578063dd62ed3e1461061b578063e3065da714610649578063eb990c5914610651578063ecc1f5021461068d578063f45e65d8146106aa5761021c565b8063a9059cbb14610579578063b4dcb453146105a5578063d3fb73b4146105c2578063d505accf146105ca5761021c565b806389afcb44116100f457806389afcb44146104ec5780638b8a15951461052b57806395d89b411461054857806398118cb4146105505780639cc5d5cc146105715761021c565b806370a08231146104905780637a4fe387146104b65780637ecebe00146104be57806389338da2146104e45761021c565b8063313ce567116101a85780634752ad5b116101775780634752ad5b146104205780635599a172146104285780636161d79814610445578063629d3b70146104625780636a6278421461046a5761021c565b8063313ce567146103895780633644e515146103a75780633e335efe146103af57806346d83ad5146103f45761021c565b806318160ddd116101ef57806318160ddd1461031757806323b872dd1461031f5780632495a59914610355578063262c643b1461037957806330adf81f146103815761021c565b806302a5fea21461022157806306fdde031461022b5780630772f862146102a8578063095ea7b3146102d7575b600080fd5b6102296106b2565b005b6102336107f8565b6040805160208082528351818301528351919283929083019185019080838360005b8381101561026d578181015183820152602001610255565b50505050905090810190601f16801561029a5780820380516001836020036101000a031916815260200191505b509250505060405180910390f35b6102c5600480360360208110156102be57600080fd5b5035610820565b60408051918252519081900360200190f35b610303600480360360408110156102ed57600080fd5b506001600160a01b038135169060200135610839565b604080519115158252519081900360200190f35b6102c5610850565b6103036004803603606081101561033557600080fd5b506001600160a01b03813581169160208101359091169060400135610856565b61035d6108eb565b604080516001600160a01b039092168252519081900360200190f35b6102c56108fa565b6102c5610956565b61039161097a565b6040805160ff9092168252519081900360200190f35b6102c561097f565b6103db600480360360408110156103c557600080fd5b50803590602001356001600160a01b0316610985565b6040805192835290151560208301528051918290030190f35b6103db6004803603604081101561040a57600080fd5b50803590602001356001600160a01b0316610cc1565b6102c5610fbc565b6102c56004803603602081101561043e57600080fd5b5035610fd2565b6102c56004803603602081101561045b57600080fd5b5035610ff5565b6102c5611000565b6102c56004803603602081101561048057600080fd5b50356001600160a01b0316611049565b6102c5600480360360208110156104a657600080fd5b50356001600160a01b0316611304565b6102c5611316565b6102c5600480360360208110156104d457600080fd5b50356001600160a01b031661131c565b6102c561132e565b6105126004803603602081101561050257600080fd5b50356001600160a01b0316611334565b6040805192835260208301919091528051918290030190f35b6102c56004803603602081101561054157600080fd5b50356116c2565b6102336116cd565b6105586116ef565b6040805163ffffffff9092168252519081900360200190f35b6105126116fb565b6103036004803603604081101561058f57600080fd5b506001600160a01b038135169060200135611705565b6102c5600480360360208110156105bb57600080fd5b5035611712565b6102c5611723565b610229600480360360e08110156105e057600080fd5b506001600160a01b03813581169160208101359091169060408101359060608101359060ff6080820135169060a08101359060c00135611729565b6102c56004803603604081101561063157600080fd5b506001600160a01b038135811691602001351661192d565b61035d61194a565b6102296004803603608081101561066757600080fd5b506001600160a01b03813581169160208101359091169060408101359060600135611959565b6102c5600480360360208110156106a357600080fd5b5035611a1c565b6102c5611a3f565b600260055414156106f8576040805162461bcd60e51b815260206004820152601f60248201526000805160206126b3833981519152604482015290519081900360640190fd5b6002600555600b54604080516370a0823160e01b815230600482015290516107f1926001600160a01b0316916370a08231916024808301926020929190829003018186803b15801561074957600080fd5b505afa15801561075d573d6000803e3d6000fd5b505050506040513d602081101561077357600080fd5b5051600c54604080516370a0823160e01b815230600482015290516001600160a01b03909216916370a0823191602480820192602092909190829003018186803b1580156107c057600080fd5b505afa1580156107d4573d6000803e3d6000fd5b505050506040513d60208110156107ea57600080fd5b5051611a45565b6001600555565b6040518060400160405280600c81526020016b5072696d697469766520563160a01b81525081565b600061083182600a54600954611a8e565b90505b919050565b6000610846338484611ac5565b5060015b92915050565b60005481565b6001600160a01b0383166000908152600260209081526040808320338452909152812054600019146108d5576001600160a01b03841660009081526002602090815260408083203384529091529020546108b09083611b27565b6001600160a01b03851660009081526002602090815260408083203384529091529020555b6108e0848484611b69565b5060015b9392505050565b600c546001600160a01b031681565b6000600a54600014801561090e5750600954155b1561091b57506000610953565b610950610935600954600a54611c1790919063ffffffff16565b600a5461094a90670de0b6b3a7640000611c71565b90611cca565b90505b90565b7f6e71edae12b1b97f4d1f60370fef10105fa2faae0126114a169c64845d6126c981565b601281565b60035481565b600080600260055414156109ce576040805162461bcd60e51b815260206004820152601f60248201526000805160206126b3833981519152604482015290519081900360640190fd5b600260055583610a20576040805162461bcd60e51b81526020600482015260186024820152775072696d697469766556323a20414d4f554e545f5a45524f60401b604482015290519081900360640190fd5b600080610a2b6116fb565b915091506000806000610a3d89611d31565b600b54909150610a57906001600160a01b0316898b611d58565b600b54604080516370a0823160e01b815230600482015290516001600160a01b03909216916370a0823191602480820192602092909190829003018186803b158015610aa257600080fd5b505afa158015610ab6573d6000803e3d6000fd5b505050506040513d6020811015610acc57600080fd5b5051600c54604080516370a0823160e01b815230600482015290519295506001600160a01b03909116916370a0823191602480820192602092909190829003018186803b158015610b1c57600080fd5b505afa158015610b30573d6000803e3d6000fd5b505050506040513d6020811015610b4657600080fd5b5051915060008986038411610b5c576000610b62565b89860384035b90506000858411610b74576000610b78565b8584035b90506000821180610b895750600081115b610bc45760405162461bcd60e51b81526004018080602001828103825260218152602001806126d36021913960400191505060405180910390fd5b600654610be790610be0908d9063ffffffff90811690611cca16565b8c90611c17565b82101580610bf55750828110155b610c3f576040805162461bcd60e51b8152602060048201526016602482015275141c9a5b5a5d1a5d99558c8e8812539590549250539560521b604482015290519081900360640190fd5b610c498585611a45565b610c51611daf565b896001600160a01b0316610c63611dbc565b6001600160a01b03167fab082dc6909985db4af3c5421614b5dd736ca3ccb783894aae8803ce466410c18d86604051808381526020018281526020019250505060405180910390a35050505050505060016005819055509250929050565b60008060026005541415610d0a576040805162461bcd60e51b815260206004820152601f60248201526000805160206126b3833981519152604482015290519081900360640190fd5b600260055583610d5c576040805162461bcd60e51b81526020600482015260186024820152775072696d697469766556323a20414d4f554e545f5a45524f60401b604482015290519081900360640190fd5b600080610d676116fb565b915091506000806000610d7989611dc0565b600c54909150610d93906001600160a01b03168983611d58565b600b54604080516370a0823160e01b815230600482015290516001600160a01b03909216916370a0823191602480820192602092909190829003018186803b158015610dde57600080fd5b505afa158015610df2573d6000803e3d6000fd5b505050506040513d6020811015610e0857600080fd5b5051600c54604080516370a0823160e01b815230600482015290519295506001600160a01b03909116916370a0823191602480820192602092909190829003018186803b158015610e5857600080fd5b505afa158015610e6c573d6000803e3d6000fd5b505050506040513d6020811015610e8257600080fd5b505191506000858411610e96576000610e9a565b8584035b905060008286038411610eae576000610eb4565b82860384035b90506000821180610ec55750600081115b610f005760405162461bcd60e51b81526004018080602001828103825260218152602001806126d36021913960400191505060405180910390fd5b8a82101580610f315750600654610f2d90610f2690859063ffffffff90811690611cca16565b8490611c17565b8110155b610f3a57600080fd5b610f448585611a45565b610f4c611daf565b896001600160a01b0316610f5e611dbc565b6001600160a01b03167fe56315338dde9f47729c121942dbefbe20b507d31f6b4872536e2e79444664fd8d86604051808381526020018281526020019250505060405180910390a35050505050505060016005819055509250929050565b6000610950600854600754600a54600954611dcc565b600080610fde83611e27565b6006549091506108e490829063ffffffff16611e3e565b600061083182611d31565b60008061100b610fbc565b90508061101c576000915050610953565b6000611030670de0b6b3a764000083611cca565b90508061103b611e4b565b63ffffffff16039250505090565b600060026005541415611091576040805162461bcd60e51b815260206004820152601f60248201526000805160206126b3833981519152604482015290519081900360640190fd5b60026005556000806110a16116fb565b600b54604080516370a0823160e01b815230600482015290519395509193506000926001600160a01b03909116916370a08231916024808301926020929190829003018186803b1580156110f457600080fd5b505afa158015611108573d6000803e3d6000fd5b505050506040513d602081101561111e57600080fd5b5051600c54604080516370a0823160e01b815230600482015290519293506000926001600160a01b03909216916370a0823191602480820192602092909190829003018186803b15801561117157600080fd5b505afa158015611185573d6000803e3d6000fd5b505050506040513d602081101561119b57600080fd5b5051905060006111ab8386611e53565b905060006111b98386611e53565b60005490915080611208576111e76111cf611eb0565b6111e16111dc8686611c71565b611eb6565b90611e53565b97506111fb60006111f6611eb0565b611ec1565b611203611daf565b611239565b611236876112168584611c71565b8161121d57fe5b04876112298585611c71565b8161123057fe5b04611f4b565b97505b6000881161128e576040805162461bcd60e51b815260206004820152601b60248201527f5072696d697469766556323a204c49515549444954595f5a45524f0000000000604482015290519081900360640190fd5b6112988989611ec1565b6112a28585611a45565b6112aa611dbc565b6001600160a01b03167f4c209b5fc8ad50758f13e2e1088ba56a560dff690a1c6fef26394f4c03821c4f8484604051808381526020018281526020019250505060405180910390a250506001600555509395945050505050565b60016020526000908152604090205481565b60095481565b60046020526000908152604090205481565b600a5481565b6000806002600554141561137d576040805162461bcd60e51b815260206004820152601f60248201526000805160206126b3833981519152604482015290519081900360640190fd5b600260055560008061138d6116fb565b600b54600c54604080516370a0823160e01b815230600482015290519496509294506001600160a01b039182169391169160009184916370a08231916024808301926020929190829003018186803b1580156113e857600080fd5b505afa1580156113fc573d6000803e3d6000fd5b505050506040513d602081101561141257600080fd5b5051604080516370a0823160e01b815230600482015290519192506000916001600160a01b038516916370a08231916024808301926020929190829003018186803b15801561146057600080fd5b505afa158015611474573d6000803e3d6000fd5b505050506040513d602081101561148a57600080fd5b505130600090815260016020526040812054905491925090806114ad8386611c71565b816114b457fe5b049950806114c28385611c71565b816114c957fe5b04985060008a1180156114dc5750600089115b61152d576040805162461bcd60e51b815260206004820152601860248201527f5072696d697469766556323a205a45524f5f4255524e45440000000000000000604482015290519081900360640190fd5b6115373083611f57565b61154b6001600160a01b0387168c8c611d58565b61155f6001600160a01b0386168c8b611d58565b604080516370a0823160e01b815230600482015290516001600160a01b038816916370a08231916024808301926020929190829003018186803b1580156115a557600080fd5b505afa1580156115b9573d6000803e3d6000fd5b505050506040513d60208110156115cf57600080fd5b5051604080516370a0823160e01b815230600482015290519195506001600160a01b038716916370a0823191602480820192602092909190829003018186803b15801561161b57600080fd5b505afa15801561162f573d6000803e3d6000fd5b505050506040513d602081101561164557600080fd5b505192506116538484611a45565b8a6001600160a01b0316611665611dbc565b6001600160a01b03167fdccd412f0b1252819cb1fd330b93224ca42612892bb3f4f789976e6d819364968c8c604051808381526020018281526020019250505060405180910390a350505050505050506001600581905550915091565b600061083182611dc0565b6040518060400160405280600681526020016550524d2d563160d01b81525081565b60065463ffffffff1681565b600a546009549091565b6000610846338484611b69565b600061083182600a54600954611fe9565b60085481565b42841015611775576040805162461bcd60e51b8152602060048201526014602482015273141c9a5b5a5d1a5d99558c4e881156141254915160621b604482015290519081900360640190fd5b6003546001600160a01b0380891660008181526004602090815260408083208054600180820190925582517f6e71edae12b1b97f4d1f60370fef10105fa2faae0126114a169c64845d6126c98186015280840196909652958d166060860152608085018c905260a085019590955260c08085018b90528151808603909101815260e08501825280519083012061190160f01b6101008601526101028501969096526101228085019690965280518085039096018652610142840180825286519683019690962095839052610162840180825286905260ff89166101828501526101a284018890526101c28401879052519193926101e280820193601f1981019281900390910190855afa158015611890573d6000803e3d6000fd5b5050604051601f1901519150506001600160a01b038116158015906118c65750886001600160a01b0316816001600160a01b0316145b611917576040805162461bcd60e51b815260206004820152601e60248201527f5072696d697469766556313a20494e56414c49445f5349474e41545552450000604482015290519081900360640190fd5b611922898989611ac5565b505050505050505050565b600260209081526000928352604080842090915290825290205481565b600b546001600160a01b031681565b6009541580156119695750600a54155b6119ba576040805162461bcd60e51b815260206004820152601860248201527f5072696d697469766556323a20494e495449414c495a45440000000000000000604482015290519081900360640190fd5b600b80546001600160a01b038087166001600160a01b031992831617909255600c805492861692909116919091179055600782905560088190556119fc611ff6565b6006805463ffffffff191663ffffffff9290921691909117905550505050565b600080611a2883611ffd565b6006549091506108e490829063ffffffff16612014565b60075481565b600a8290556009819055604080518381526020810183905281517f691822b70f33953c5c34dc4097518d946130c893dca23eb3e2044a4661de48e6929181900390910190a15050565b600080611a9b8486611e53565b9050611abc611aaa8585611c17565b61094a83670de0b6b3a7640000611c71565b95945050505050565b6001600160a01b03808416600081815260026020908152604080832094871680845294825291829020859055815185815291517f8c5be1e5ebec7d5bd14f71427d1e84f3dd0314c0f7b2291e5b200ac8c7c3b9259281900390910190a3505050565b60006108e483836040518060400160405280601e81526020017f536166654d6174683a207375627472616374696f6e206f766572666c6f770000815250612021565b6001600160a01b038316600090815260016020526040902054611b8c9082611b27565b6001600160a01b038085166000908152600160205260408082209390935590841681522054611bbb9082611c17565b6001600160a01b0380841660008181526001602090815260409182902094909455805185815290519193928716927fddf252ad1be2c89b69c2b068fc378daa952ba7f163c4a11628f55a4df523b3ef92918290030190a3505050565b6000828201838110156108e4576040805162461bcd60e51b815260206004820152601b60248201527f536166654d6174683a206164646974696f6e206f766572666c6f770000000000604482015290519081900360640190fd5b600082611c805750600061084a565b82820282848281611c8d57fe5b04146108e45760405162461bcd60e51b815260040180806020018281038252602181526020018061271a6021913960400191505060405180910390fd5b6000808211611d20576040805162461bcd60e51b815260206004820152601a60248201527f536166654d6174683a206469766973696f6e206279207a65726f000000000000604482015290519081900360640190fd5b818381611d2957fe5b049392505050565b600080611d3d83610fd2565b905080611d4e576000915050610834565b6108e483826120b8565b604080516001600160a01b038416602482015260448082018490528251808303909101815260649091019091526020810180516001600160e01b031663a9059cbb60e01b179052611daa9084906120cc565b505050565b611db7610fbc565b600d55565b3390565b600080611d3d83611a1c565b600082158015611dda575081155b15611de757506000611e1f565b6000611e08611df68585611c17565b61094a86670de0b6b3a7640000611c71565b9050611e1586828761217d565b63ffffffff169150505b949350505050565b600061083160085460075484600a54600954612211565b63ffffffff919091160390565b633b9aca0090565b600082821115611eaa576040805162461bcd60e51b815260206004820152601e60248201527f536166654d6174683a207375627472616374696f6e206f766572666c6f770000604482015290519081900360640190fd5b50900390565b6103e890565b60006108318261225a565b600054611ece9082611c17565b60009081556001600160a01b038316815260016020526040902054611ef39082611c17565b6001600160a01b03831660008181526001602090815260408083209490945583518581529351929391927fddf252ad1be2c89b69c2b068fc378daa952ba7f163c4a11628f55a4df523b3ef9281900390910190a35050565b60006108e483836122ab565b6001600160a01b038216600090815260016020526040902054611f7a9082611b27565b6001600160a01b03831660009081526001602052604081209190915554611fa19082611b27565b60009081556040805183815290516001600160a01b038516917fddf252ad1be2c89b69c2b068fc378daa952ba7f163c4a11628f55a4df523b3ef919081900360200190a35050565b600080611a9b8486611c17565b6203d09090565b600061083160085460075484600a546009546122c1565b63ffffffff919091160190565b600081848411156120b05760405162461bcd60e51b81526004018080602001828103825283818151815260200191508051906020019080838360005b8381101561207557818101518382015260200161205d565b50505050905090810190601f1680156120a25780820380516001836020036101000a031916815260200191505b509250505060405180910390fd5b505050900390565b60006108e48261094a85633b9aca00611c71565b6060612121826040518060400160405280602081526020017f5361666545524332303a206c6f772d6c6576656c2063616c6c206661696c6564815250856001600160a01b03166122e89092919063ffffffff16565b805190915015611daa5780806020019051602081101561214057600080fd5b5051611daa5760405162461bcd60e51b815260040180806020018281038252602a81526020018061273b602a913960400191505060405180910390fd5b60006121a6612194670de0b6b3a764000085611e53565b61094a85670de0b6b3a7640000611c71565b925060006121b3846122f7565b67ffffffffffffffff169050806121ce5760009150506108e4565b600085846409a667e258198401816121e257fe5b0501905060008112806121f8575063ffffffff81135b15612208576000925050506108e4565b91506108e49050565b600082158061221e575081155b8061222857508284115b1561223557506000611abc565b6000612242858585611a8e565b905061224f87828861217d565b979650505050505050565b6000600382111561229d575080600160028204015b818110156122975780915060028182858161228657fe5b04018161228f57fe5b04905061226f565b50610834565b811561083457506001919050565b60008183106122ba57816108e4565b5090919050565b60008215806122ce575081155b156122db57506000611abc565b6000612242858585611fe9565b6060611e1f848460008561239d565b6000677fffffffffffffff82111561231157506000610834565b600061231c836124ee565b9050600081600f0b13612333576000915050610834565b600061233e8261250c565b600f0b90506b3b9aca000000000000000000810260401d6f7fffffffffffffffffffffffffffffff1981128061238357506f7fffffffffffffffffffffffffffffff81135b156123945760009350505050610834565b611abc81612546565b6060824710156123de5760405162461bcd60e51b81526004018080602001828103825260268152602001806126f46026913960400191505060405180910390fd5b6123e785612562565b612438576040805162461bcd60e51b815260206004820152601d60248201527f416464726573733a2063616c6c20746f206e6f6e2d636f6e7472616374000000604482015290519081900360640190fd5b60006060866001600160a01b031685876040518082805190602001908083835b602083106124775780518252601f199092019160209182019101612458565b6001836020036101000a03801982511681845116808217855250505050505090500191505060006040518083038185875af1925050503d80600081146124d9576040519150601f19603f3d011682016040523d82523d6000602084013e6124de565b606091505b509150915061224f828286612568565b6000677fffffffffffffff82111561250557600080fd5b5060401b90565b60008082600f0b1361251d57600080fd5b6080612528836125ce565b600f0b6fb17217f7d1cf79abc9e3b39803f2f6af02901c9050919050565b60008082600f0b121561255857600080fd5b50600f0b60401d90565b3b151590565b606083156125775750816108e4565b8251156125875782518084602001fd5b60405162461bcd60e51b815260206004820181815284516024840152845185939192839260440191908501908083836000831561207557818101518382015260200161205d565b60008082600f0b136125df57600080fd5b6000600f83900b6801000000000000000081126125fe576040918201911d5b6401000000008112612612576020918201911d5b620100008112612624576010918201911d5b6101008112612635576008918201911d5b60108112612645576004918201911d5b60048112612655576002918201911d5b60028112612664576001820191505b603f19820160401b600f85900b607f8490031b6780000000000000005b60008113156126a75790800260ff81901c8281029390930192607f011c9060011d612681565b50909594505050505056fe5265656e7472616e637947756172643a207265656e7472616e742063616c6c005072696d697469766556323a2052455455524e45445f414d4f554e545f5a45524f416464726573733a20696e73756666696369656e742062616c616e636520666f722063616c6c536166654d6174683a206d756c7469706c69636174696f6e206f766572666c6f775361666545524332303a204552433230206f7065726174696f6e20646964206e6f742073756363656564a2646970667358221220259e81851466fb95846cfe48dbe8fcb17a27537fd78e6f46305283160b8473b664736f6c63430007010033",
  "linkReferences": {},
  "deployedLinkReferences": {}
}