{
  "_format": "hh-sol-artifact-1",
  "contractName": "PrimitiveAmm",
  "sourceName": "contracts/PrimitiveAmm.sol",
  "abi": [
    {
      "inputs": [],
      "stateMutability": "nonpayable",
      "type": "constructor"
    },
    {
      "anonymous": false,
      "inputs": [
        {
          "indexed": true,
          "internalType": "address",
          "name": "owner",
          "type": "address"
        },
        {
          "indexed": true,
          "internalType": "address",
          "name": "spender",
          "type": "address"
        },
        {
          "indexed": false,
          "internalType": "uint256",
          "name": "value",
          "type": "uint256"
        }
      ],
      "name": "Approval",
      "type": "event"
    },
    {
      "anonymous": false,
      "inputs": [
        {
          "indexed": true,
          "internalType": "address",
          "name": "from",
          "type": "address"
        },
        {
          "indexed": false,
          "internalType": "uint256",
          "name": "shortAmount",
          "type": "uint256"
        },
        {
          "indexed": false,
          "internalType": "uint256",
          "name": "underlyingAmount",
          "type": "uint256"
        },
        {
          "indexed": true,
          "internalType": "address",
          "name": "receiver",
          "type": "address"
        }
      ],
      "name": "Burn",
      "type": "event"
    },
    {
      "anonymous": false,
      "inputs": [
        {
          "indexed": true,
          "internalType": "address",
          "name": "from",
          "type": "address"
        },
        {
          "indexed": false,
          "internalType": "uint256",
          "name": "shortAmount",
          "type": "uint256"
        },
        {
          "indexed": false,
          "internalType": "uint256",
          "name": "underlyingAmount",
          "type": "uint256"
        }
      ],
      "name": "Mint",
      "type": "event"
    },
    {
      "anonymous": false,
      "inputs": [
        {
          "indexed": true,
          "internalType": "address",
          "name": "from",
          "type": "address"
        },
        {
          "indexed": false,
          "internalType": "uint256",
          "name": "shortAmount",
          "type": "uint256"
        },
        {
          "indexed": false,
          "internalType": "uint256",
          "name": "underlyingAmount",
          "type": "uint256"
        },
        {
          "indexed": true,
          "internalType": "address",
          "name": "receiver",
          "type": "address"
        }
      ],
      "name": "SwapFromShort",
      "type": "event"
    },
    {
      "anonymous": false,
      "inputs": [
        {
          "indexed": true,
          "internalType": "address",
          "name": "from",
          "type": "address"
        },
        {
          "indexed": false,
          "internalType": "uint256",
          "name": "shortAmount",
          "type": "uint256"
        },
        {
          "indexed": false,
          "internalType": "uint256",
          "name": "underlyingAmount",
          "type": "uint256"
        },
        {
          "indexed": true,
          "internalType": "address",
          "name": "receiver",
          "type": "address"
        }
      ],
      "name": "SwapToShort",
      "type": "event"
    },
    {
      "anonymous": false,
      "inputs": [
        {
          "indexed": true,
          "internalType": "address",
          "name": "from",
          "type": "address"
        },
        {
          "indexed": true,
          "internalType": "address",
          "name": "to",
          "type": "address"
        },
        {
          "indexed": false,
          "internalType": "uint256",
          "name": "value",
          "type": "uint256"
        }
      ],
      "name": "Transfer",
      "type": "event"
    },
    {
      "anonymous": false,
      "inputs": [
        {
          "indexed": false,
          "internalType": "uint256",
          "name": "postShortCache",
          "type": "uint256"
        },
        {
          "indexed": false,
          "internalType": "uint256",
          "name": "postUnderlyingCache",
          "type": "uint256"
        }
      ],
      "name": "UpdatedCaches",
      "type": "event"
    },
    {
      "inputs": [],
      "name": "DOMAIN_SEPARATOR",
      "outputs": [
        {
          "internalType": "bytes32",
          "name": "",
          "type": "bytes32"
        }
      ],
      "stateMutability": "view",
      "type": "function"
    },
    {
      "inputs": [],
      "name": "PERMIT_TYPEHASH",
      "outputs": [
        {
          "internalType": "bytes32",
          "name": "",
          "type": "bytes32"
        }
      ],
      "stateMutability": "view",
      "type": "function"
    },
    {
      "inputs": [
        {
          "internalType": "address",
          "name": "",
          "type": "address"
        },
        {
          "internalType": "address",
          "name": "",
          "type": "address"
        }
      ],
      "name": "allowance",
      "outputs": [
        {
          "internalType": "uint256",
          "name": "",
          "type": "uint256"
        }
      ],
      "stateMutability": "view",
      "type": "function"
    },
    {
      "inputs": [],
      "name": "anchor",
      "outputs": [
        {
          "internalType": "int256",
          "name": "",
          "type": "int256"
        }
      ],
      "stateMutability": "view",
      "type": "function"
    },
    {
      "inputs": [
        {
          "internalType": "address",
          "name": "spender",
          "type": "address"
        },
        {
          "internalType": "uint256",
          "name": "value",
          "type": "uint256"
        }
      ],
      "name": "approve",
      "outputs": [
        {
          "internalType": "bool",
          "name": "",
          "type": "bool"
        }
      ],
      "stateMutability": "nonpayable",
      "type": "function"
    },
    {
      "inputs": [
        {
          "internalType": "address",
          "name": "",
          "type": "address"
        }
      ],
      "name": "balanceOf",
      "outputs": [
        {
          "internalType": "uint256",
          "name": "",
          "type": "uint256"
        }
      ],
      "stateMutability": "view",
      "type": "function"
    },
    {
      "inputs": [
        {
          "internalType": "address",
          "name": "receiver",
          "type": "address"
        }
      ],
      "name": "burn",
      "outputs": [
        {
          "internalType": "uint256",
          "name": "shortAmount",
          "type": "uint256"
        },
        {
          "internalType": "uint256",
          "name": "underlyingAmount",
          "type": "uint256"
        }
      ],
      "stateMutability": "nonpayable",
      "type": "function"
    },
    {
      "inputs": [],
      "name": "decimals",
      "outputs": [
        {
          "internalType": "uint8",
          "name": "",
          "type": "uint8"
        }
      ],
      "stateMutability": "view",
      "type": "function"
    },
    {
      "inputs": [],
      "name": "getCaches",
      "outputs": [
        {
          "internalType": "uint256",
          "name": "",
          "type": "uint256"
        },
        {
          "internalType": "uint256",
          "name": "",
          "type": "uint256"
        }
      ],
      "stateMutability": "view",
      "type": "function"
    },
    {
      "inputs": [
        {
          "internalType": "uint256",
          "name": "shortAmount",
          "type": "uint256"
        },
        {
          "internalType": "bool",
          "name": "isSellingShort",
          "type": "bool"
        }
      ],
      "name": "getExecutedExchangeRate",
      "outputs": [
        {
          "internalType": "uint256",
          "name": "",
          "type": "uint256"
        }
      ],
      "stateMutability": "view",
      "type": "function"
    },
    {
      "inputs": [
        {
          "internalType": "uint256",
          "name": "shortAmount",
          "type": "uint256"
        },
        {
          "internalType": "bool",
          "name": "isSellingShort",
          "type": "bool"
        }
      ],
      "name": "getExecutedProportion",
      "outputs": [
        {
          "internalType": "uint256",
          "name": "",
          "type": "uint256"
        }
      ],
      "stateMutability": "view",
      "type": "function"
    },
    {
      "inputs": [],
      "name": "getProportion",
      "outputs": [
        {
          "internalType": "uint256",
          "name": "",
          "type": "uint256"
        }
      ],
      "stateMutability": "view",
      "type": "function"
    },
    {
      "inputs": [
        {
          "internalType": "uint256",
          "name": "shortAmount",
          "type": "uint256"
        }
      ],
      "name": "getShortToUnderlyingQuote",
      "outputs": [
        {
          "internalType": "uint256",
          "name": "",
          "type": "uint256"
        }
      ],
      "stateMutability": "view",
      "type": "function"
    },
    {
      "inputs": [],
      "name": "getSpotExchangeRate",
      "outputs": [
        {
          "internalType": "uint256",
          "name": "",
          "type": "uint256"
        }
      ],
      "stateMutability": "view",
      "type": "function"
    },
    {
      "inputs": [],
      "name": "getSpotRate",
      "outputs": [
        {
          "internalType": "uint256",
          "name": "",
          "type": "uint256"
        }
      ],
      "stateMutability": "view",
      "type": "function"
    },
    {
      "inputs": [
        {
          "internalType": "uint256",
          "name": "shortAmount",
          "type": "uint256"
        }
      ],
      "name": "getUnderlyingToShortQuote",
      "outputs": [
        {
          "internalType": "uint256",
          "name": "",
          "type": "uint256"
        }
      ],
      "stateMutability": "view",
      "type": "function"
    },
    {
      "inputs": [
        {
          "internalType": "address",
          "name": "shortToken_",
          "type": "address"
        },
        {
          "internalType": "address",
          "name": "underlyingToken_",
          "type": "address"
        },
        {
          "internalType": "uint256",
          "name": "scalar_",
          "type": "uint256"
        },
        {
          "internalType": "uint256",
          "name": "anchor_",
          "type": "uint256"
        }
      ],
      "name": "initialize",
      "outputs": [],
      "stateMutability": "nonpayable",
      "type": "function"
    },
    {
      "inputs": [],
      "name": "liquidityFee",
      "outputs": [
        {
          "internalType": "uint32",
          "name": "",
          "type": "uint32"
        }
      ],
      "stateMutability": "view",
      "type": "function"
    },
    {
      "inputs": [
        {
          "internalType": "address",
          "name": "receiver",
          "type": "address"
        }
      ],
      "name": "mint",
      "outputs": [
        {
          "internalType": "uint256",
          "name": "liquidity",
          "type": "uint256"
        }
      ],
      "stateMutability": "nonpayable",
      "type": "function"
    },
    {
      "inputs": [],
      "name": "name",
      "outputs": [
        {
          "internalType": "string",
          "name": "",
          "type": "string"
        }
      ],
      "stateMutability": "view",
      "type": "function"
    },
    {
      "inputs": [
        {
          "internalType": "address",
          "name": "",
          "type": "address"
        }
      ],
      "name": "nonces",
      "outputs": [
        {
          "internalType": "uint256",
          "name": "",
          "type": "uint256"
        }
      ],
      "stateMutability": "view",
      "type": "function"
    },
    {
      "inputs": [
        {
          "internalType": "address",
          "name": "owner",
          "type": "address"
        },
        {
          "internalType": "address",
          "name": "spender",
          "type": "address"
        },
        {
          "internalType": "uint256",
          "name": "value",
          "type": "uint256"
        },
        {
          "internalType": "uint256",
          "name": "deadline",
          "type": "uint256"
        },
        {
          "internalType": "uint8",
          "name": "v",
          "type": "uint8"
        },
        {
          "internalType": "bytes32",
          "name": "r",
          "type": "bytes32"
        },
        {
          "internalType": "bytes32",
          "name": "s",
          "type": "bytes32"
        }
      ],
      "name": "permit",
      "outputs": [],
      "stateMutability": "nonpayable",
      "type": "function"
    },
    {
      "inputs": [],
      "name": "scalar",
      "outputs": [
        {
          "internalType": "int256",
          "name": "",
          "type": "int256"
        }
      ],
      "stateMutability": "view",
      "type": "function"
    },
    {
      "inputs": [],
      "name": "shortCache",
      "outputs": [
        {
          "internalType": "uint256",
          "name": "",
          "type": "uint256"
        }
      ],
      "stateMutability": "view",
      "type": "function"
    },
    {
      "inputs": [],
      "name": "shortToken",
      "outputs": [
        {
          "internalType": "address",
          "name": "",
          "type": "address"
        }
      ],
      "stateMutability": "view",
      "type": "function"
    },
    {
      "inputs": [
        {
          "internalType": "uint256",
          "name": "amountShortIn",
          "type": "uint256"
        },
        {
          "internalType": "address",
          "name": "receiver",
          "type": "address"
        }
      ],
      "name": "swapShortToUnderlying",
      "outputs": [
        {
          "internalType": "uint256",
          "name": "",
          "type": "uint256"
        },
        {
          "internalType": "bool",
          "name": "",
          "type": "bool"
        }
      ],
      "stateMutability": "nonpayable",
      "type": "function"
    },
    {
      "inputs": [
        {
          "internalType": "uint256",
          "name": "amountShortOut",
          "type": "uint256"
        },
        {
          "internalType": "address",
          "name": "receiver",
          "type": "address"
        }
      ],
      "name": "swapUnderlyingToShort",
      "outputs": [
        {
          "internalType": "uint256",
          "name": "",
          "type": "uint256"
        },
        {
          "internalType": "bool",
          "name": "",
          "type": "bool"
        }
      ],
      "stateMutability": "nonpayable",
      "type": "function"
    },
    {
      "inputs": [],
      "name": "symbol",
      "outputs": [
        {
          "internalType": "string",
          "name": "",
          "type": "string"
        }
      ],
      "stateMutability": "view",
      "type": "function"
    },
    {
      "inputs": [],
      "name": "totalSupply",
      "outputs": [
        {
          "internalType": "uint256",
          "name": "",
          "type": "uint256"
        }
      ],
      "stateMutability": "view",
      "type": "function"
    },
    {
      "inputs": [
        {
          "internalType": "address",
          "name": "to",
          "type": "address"
        },
        {
          "internalType": "uint256",
          "name": "value",
          "type": "uint256"
        }
      ],
      "name": "transfer",
      "outputs": [
        {
          "internalType": "bool",
          "name": "",
          "type": "bool"
        }
      ],
      "stateMutability": "nonpayable",
      "type": "function"
    },
    {
      "inputs": [
        {
          "internalType": "address",
          "name": "from",
          "type": "address"
        },
        {
          "internalType": "address",
          "name": "to",
          "type": "address"
        },
        {
          "internalType": "uint256",
          "name": "value",
          "type": "uint256"
        }
      ],
      "name": "transferFrom",
      "outputs": [
        {
          "internalType": "bool",
          "name": "",
          "type": "bool"
        }
      ],
      "stateMutability": "nonpayable",
      "type": "function"
    },
    {
      "inputs": [],
      "name": "underlyingCache",
      "outputs": [
        {
          "internalType": "uint256",
          "name": "",
          "type": "uint256"
        }
      ],
      "stateMutability": "view",
      "type": "function"
    },
    {
      "inputs": [],
      "name": "underlyingToken",
      "outputs": [
        {
          "internalType": "address",
          "name": "",
          "type": "address"
        }
      ],
      "stateMutability": "view",
      "type": "function"
    },
    {
      "inputs": [],
      "name": "updateCacheBalances",
      "outputs": [],
      "stateMutability": "nonpayable",
      "type": "function"
    }
  ],
  "bytecode": "0x60806040526001600c5534801561001557600080fd5b50604080518082018252600c81526b283934b6b4ba34bb32902b1960a11b6020918201528151808301835260018152603160f81b9082015281517f8b73c3c69bb8fe3d512ecc4cf759cc79239f7b179b0ffacaa9a75d522b39400f818301527f3a8e617c491c572befd62b1b894e19a7270a7f9f3ab23b3f0e8699e07b791301818401527fc89efdaa54c0f20c7adf612882df0950f5a951637e0307cdcb4c672f298b8bc660608201524660808201523060a0808301919091528351808303909101815260c090910190925281519101206003556125b5806100f86000396000f3fe608060405234801561001057600080fd5b50600436106102065760003560e01c806370a082311161011a5780639cc5d5cc116100ad578063dd62ed3e1161007c578063dd62ed3e146105d3578063e3065da714610601578063eb990c5914610609578063f45e65d814610645578063f4eda67e1461064d57610206565b80639cc5d5cc14610546578063a9059cbb1461054e578063d3fb73b41461057a578063d505accf1461058257610206565b806389afcb44116100e957806389afcb44146104c15780638b8a15951461050057806395d89b411461051d57806398118cb41461052557610206565b806370a08231146104655780637a4fe3871461048b5780637ecebe001461049357806389338da2146104b957610206565b8063313ce5671161019d57806346d83ad51161016c57806346d83ad5146103e65780634752ad5b146104125780636161d7981461041a578063629d3b70146104375780636a6278421461043f57610206565b8063313ce567146103565780633644e515146103745780633c97e31a1461037c5780633e335efe146103a157610206565b806323b872dd116101d957806323b872dd146102ec5780632495a59914610322578063262c643b1461034657806330adf81f1461034e57610206565b806302a5fea21461020b57806306fdde0314610215578063095ea7b31461029257806318160ddd146102d2575b600080fd5b610213610672565b005b61021d6107b7565b6040805160208082528351818301528351919283929083019185019080838360005b8381101561025757818101518382015260200161023f565b50505050905090810190601f1680156102845780820380516001836020036101000a031916815260200191505b509250505060405180910390f35b6102be600480360360408110156102a857600080fd5b506001600160a01b0381351690602001356107df565b604080519115158252519081900360200190f35b6102da6107f6565b60408051918252519081900360200190f35b6102be6004803603606081101561030257600080fd5b506001600160a01b038135811691602081013590911690604001356107fc565b61032a610890565b604080516001600160a01b039092168252519081900360200190f35b6102da61089f565b6102da6108fb565b61035e61091f565b6040805160ff9092168252519081900360200190f35b6102da610924565b6102da6004803603604081101561039257600080fd5b5080359060200135151561092a565b6103cd600480360360408110156103b757600080fd5b50803590602001356001600160a01b031661098d565b6040805192835290151560208301528051918290030190f35b6103cd600480360360408110156103fc57600080fd5b50803590602001356001600160a01b0316610cb0565b6102da610f92565b6102da6004803603602081101561043057600080fd5b5035610fbf565b6102da610fd4565b6102da6004803603602081101561045557600080fd5b50356001600160a01b031661103b565b6102da6004803603602081101561047b57600080fd5b50356001600160a01b03166112cd565b6102da6112df565b6102da600480360360208110156104a957600080fd5b50356001600160a01b03166112e5565b6102da6112f7565b6104e7600480360360208110156104d757600080fd5b50356001600160a01b03166112fd565b6040805192835260208301919091528051918290030190f35b6102da6004803603602081101561051657600080fd5b5035611666565b61021d611673565b61052d611695565b6040805163ffffffff9092168252519081900360200190f35b6104e76116a1565b6102be6004803603604081101561056457600080fd5b506001600160a01b0381351690602001356116ac565b6102da6116b9565b610213600480360360e081101561059857600080fd5b506001600160a01b03813581169160208101359091169060408101359060608101359060ff6080820135169060a08101359060c001356116bf565b6102da600480360360408110156105e957600080fd5b506001600160a01b03813581169160200135166118c3565b61032a6118e0565b6102136004803603608081101561061f57600080fd5b506001600160a01b038135811691602081013590911690604081013590606001356118ef565b6102da61199d565b6102da6004803603604081101561066357600080fd5b508035906020013515156119a3565b600c546001146106b7576040805162461bcd60e51b815260206004820152601a6024820152600080516020612560833981519152604482015290519081900360640190fd5b6000600c55600a54604080516370a0823160e01b815230600482015290516107b0926001600160a01b0316916370a08231916024808301926020929190829003018186803b15801561070857600080fd5b505afa15801561071c573d6000803e3d6000fd5b505050506040513d602081101561073257600080fd5b5051600b54604080516370a0823160e01b815230600482015290516001600160a01b03909216916370a0823191602480820192602092909190829003018186803b15801561077f57600080fd5b505afa158015610793573d6000803e3d6000fd5b505050506040513d60208110156107a957600080fd5b50516119f6565b6001600c55565b6040518060400160405280600c81526020016b283934b6b4ba34bb32902b1960a11b81525081565b60006107ec338484611a3f565b5060015b92915050565b60005481565b6001600160a01b03831660009081526002602090815260408083203384529091528120546000191461087b576001600160a01b03841660009081526002602090815260408083203384529091529020546108569083611aa1565b6001600160a01b03851660009081526002602090815260408083203384529091529020555b610886848484611aea565b5060019392505050565b600b546001600160a01b031681565b600060095460001480156108b35750600854155b156108c0575060006108f8565b6108f56108da600854600954611b9890919063ffffffff16565b6009546108ef90670de0b6b3a7640000611bf2565b90611c4b565b90505b90565b7f6e71edae12b1b97f4d1f60370fef10105fa2faae0126114a169c64845d6126c981565b601281565b60035481565b600080826109445760095461093f9085611aa1565b610951565b6009546109519085611b98565b9050600061096c600854600954611b9890919063ffffffff16565b9050610984816108ef84670de0b6b3a7640000611bf2565b95945050505050565b600080600c546001146109d5576040805162461bcd60e51b815260206004820152601a6024820152600080516020612560833981519152604482015290519081900360640190fd5b6000600c5583610a27576040805162461bcd60e51b81526020600482015260186024820152775072696d697469766556323a20414d4f554e545f5a45524f60401b604482015290519081900360640190fd5b600080610a326116a1565b915091506000806000610a46896000611c8d565b600a54909150610a60906001600160a01b0316898b611cbf565b600a54604080516370a0823160e01b815230600482015290516001600160a01b03909216916370a0823191602480820192602092909190829003018186803b158015610aab57600080fd5b505afa158015610abf573d6000803e3d6000fd5b505050506040513d6020811015610ad557600080fd5b5051600b54604080516370a0823160e01b815230600482015290519295506001600160a01b03909116916370a0823191602480820192602092909190829003018186803b158015610b2557600080fd5b505afa158015610b39573d6000803e3d6000fd5b505050506040513d6020811015610b4f57600080fd5b5051915060008986038411610b65576000610b6b565b89860384035b90506000858411610b7d576000610b81565b8584035b90506000821180610b925750600081115b610bcd5760405162461bcd60e51b815260040180806020018281038252602181526020018061251e6021913960400191505060405180910390fd5b600554610bf090610be9908d9063ffffffff90811690611c4b16565b8c90611b98565b82101580610bfe5750828110155b610c48576040805162461bcd60e51b8152602060048201526016602482015275141c9a5b5a5d1a5d99558c8e8812539590549250539560521b604482015290519081900360640190fd5b610c5285856119f6565b604080518c81526020810185905281516001600160a01b038d169233927fab082dc6909985db4af3c5421614b5dd736ca3ccb783894aae8803ce466410c1929081900390910190a3505050505050506001600c819055509250929050565b600080600c54600114610cf8576040805162461bcd60e51b815260206004820152601a6024820152600080516020612560833981519152604482015290519081900360640190fd5b6000600c5583610d4a576040805162461bcd60e51b81526020600482015260186024820152775072696d697469766556323a20414d4f554e545f5a45524f60401b604482015290519081900360640190fd5b600080610d556116a1565b915091506000806000610d69896001611c8d565b600b54909150610d83906001600160a01b03168983611cbf565b600a54604080516370a0823160e01b815230600482015290516001600160a01b03909216916370a0823191602480820192602092909190829003018186803b158015610dce57600080fd5b505afa158015610de2573d6000803e3d6000fd5b505050506040513d6020811015610df857600080fd5b5051600b54604080516370a0823160e01b815230600482015290519295506001600160a01b03909116916370a0823191602480820192602092909190829003018186803b158015610e4857600080fd5b505afa158015610e5c573d6000803e3d6000fd5b505050506040513d6020811015610e7257600080fd5b505191506000858411610e86576000610e8a565b8584035b905060008286038411610e9e576000610ea4565b82860384035b90506000821180610eb55750600081115b610ef05760405162461bcd60e51b815260040180806020018281038252602181526020018061251e6021913960400191505060405180910390fd5b8a82101580610f215750600554610f1d90610f1690859063ffffffff90811690611c4b16565b8490611b98565b8110155b610f2a57600080fd5b610f3485856119f6565b604080518c81526020810185905281516001600160a01b038d169233927fe56315338dde9f47729c121942dbefbe20b507d31f6b4872536e2e79444664fd929081900390910190a3505050505050506001600c819055509250929050565b6000806000610f9f611e59565b9150915080610fb3576000925050506108f8565b5063ffffffff16905090565b6000610fcc826000611c8d565b90505b919050565b6000806000610fe1611e59565b915091508163ffffffff1660001415610fff576000925050506108f8565b600061101c670de0b6b3a764000063ffffffff80861690611c4b16565b905061102e8363ffffffff1682611f34565b633b9aca00039250505090565b6000600c54600114611082576040805162461bcd60e51b815260206004820152601a6024820152600080516020612560833981519152604482015290519081900360640190fd5b6000600c819055806110926116a1565b600a54604080516370a0823160e01b815230600482015290519395509193506000926001600160a01b03909116916370a08231916024808301926020929190829003018186803b1580156110e557600080fd5b505afa1580156110f9573d6000803e3d6000fd5b505050506040513d602081101561110f57600080fd5b5051600b54604080516370a0823160e01b815230600482015290519293506000926001600160a01b03909216916370a0823191602480820192602092909190829003018186803b15801561116257600080fd5b505afa158015611176573d6000803e3d6000fd5b505050506040513d602081101561118c57600080fd5b50519050600061119c8386611aa1565b905060006111aa8386611aa1565b600054909150806111e7576111d36103e86111cd6111c88686611bf2565b611f7f565b90611aa1565b97506111e260006103e8611fd0565b611218565b611215876111f58584611bf2565b816111fc57fe5b04876112088585611bf2565b8161120f57fe5b0461205a565b97505b6000881161126d576040805162461bcd60e51b815260206004820152601b60248201527f5072696d697469766556323a204c49515549444954595f5a45524f0000000000604482015290519081900360640190fd5b6112778989611fd0565b61128185856119f6565b6040805184815260208101849052815133927f4c209b5fc8ad50758f13e2e1088ba56a560dff690a1c6fef26394f4c03821c4f928290030190a250506001600c55509395945050505050565b60016020526000908152604090205481565b60085481565b60046020526000908152604090205481565b60095481565b600080600c54600114611345576040805162461bcd60e51b815260206004820152601a6024820152600080516020612560833981519152604482015290519081900360640190fd5b6000600c819055806113556116a1565b600a54600b54604080516370a0823160e01b815230600482015290519496509294506001600160a01b039182169391169160009184916370a08231916024808301926020929190829003018186803b1580156113b057600080fd5b505afa1580156113c4573d6000803e3d6000fd5b505050506040513d60208110156113da57600080fd5b5051604080516370a0823160e01b815230600482015290519192506000916001600160a01b038516916370a08231916024808301926020929190829003018186803b15801561142857600080fd5b505afa15801561143c573d6000803e3d6000fd5b505050506040513d602081101561145257600080fd5b505130600090815260016020526040812054905491925090806114758386611bf2565b8161147c57fe5b0499508061148a8385611bf2565b8161149157fe5b04985060008a1180156114a45750600089115b6114f5576040805162461bcd60e51b815260206004820152601860248201527f5072696d697469766556323a205a45524f5f4255524e45440000000000000000604482015290519081900360640190fd5b6114ff3083612070565b61150a868c8c611cbf565b611515858c8b611cbf565b604080516370a0823160e01b815230600482015290516001600160a01b038816916370a08231916024808301926020929190829003018186803b15801561155b57600080fd5b505afa15801561156f573d6000803e3d6000fd5b505050506040513d602081101561158557600080fd5b5051604080516370a0823160e01b815230600482015290519195506001600160a01b038716916370a0823191602480820192602092909190829003018186803b1580156115d157600080fd5b505afa1580156115e5573d6000803e3d6000fd5b505050506040513d60208110156115fb57600080fd5b5051925061160984846119f6565b604080518b8152602081018b905281516001600160a01b038e169233927fdccd412f0b1252819cb1fd330b93224ca42612892bb3f4f789976e6d81936496929081900390910190a350505050505050506001600c81905550915091565b6000610fcc826001611c8d565b6040518060400160405280600681526020016528292696ab1960d11b81525081565b60055463ffffffff1681565b6009546008545b9091565b60006107ec338484611aea565b60075481565b4284101561170b576040805162461bcd60e51b8152602060048201526014602482015273141c9a5b5a5d1a5d99558c8e881156141254915160621b604482015290519081900360640190fd5b6003546001600160a01b0380891660008181526004602090815260408083208054600180820190925582517f6e71edae12b1b97f4d1f60370fef10105fa2faae0126114a169c64845d6126c98186015280840196909652958d166060860152608085018c905260a085019590955260c08085018b90528151808603909101815260e08501825280519083012061190160f01b6101008601526101028501969096526101228085019690965280518085039096018652610142840180825286519683019690962095839052610162840180825286905260ff89166101828501526101a284018890526101c28401879052519193926101e280820193601f1981019281900390910190855afa158015611826573d6000803e3d6000fd5b5050604051601f1901519150506001600160a01b0381161580159061185c5750886001600160a01b0316816001600160a01b0316145b6118ad576040805162461bcd60e51b815260206004820152601e60248201527f5072696d697469766556323a20494e56414c49445f5349474e41545552450000604482015290519081900360640190fd5b6118b8898989611a3f565b505050505050505050565b600260209081526000928352604080842090915290825290205481565b600a546001600160a01b031681565b6008541580156118ff5750600954155b611950576040805162461bcd60e51b815260206004820152601860248201527f5072696d697469766556323a20494e495449414c495a45440000000000000000604482015290519081900360640190fd5b600a80546001600160a01b039586166001600160a01b031991821617909155600b8054949095169316929092179092556006919091556007556005805463ffffffff19166203d090179055565b60065481565b60008060006119b28585612102565b91509150806119c6576000925050506107f0565b60055463ffffffff16846119e257808363ffffffff16036119ec565b808363ffffffff16015b9695505050505050565b60098290556008819055604080518381526020810183905281517f691822b70f33953c5c34dc4097518d946130c893dca23eb3e2044a4661de48e6929181900390910190a15050565b6001600160a01b03808416600081815260026020908152604080832094871680845294825291829020859055815185815291517f8c5be1e5ebec7d5bd14f71427d1e84f3dd0314c0f7b2291e5b200ac8c7c3b9259281900390910190a3505050565b6000611ae383836040518060400160405280601e81526020017f536166654d6174683a207375627472616374696f6e206f766572666c6f7700008152506121e9565b9392505050565b6001600160a01b038316600090815260016020526040902054611b0d9082611aa1565b6001600160a01b038085166000908152600160205260408082209390935590841681522054611b3c9082611b98565b6001600160a01b0380841660008181526001602090815260409182902094909455805185815290519193928716927fddf252ad1be2c89b69c2b068fc378daa952ba7f163c4a11628f55a4df523b3ef92918290030190a3505050565b600082820183811015611ae3576040805162461bcd60e51b815260206004820152601b60248201527f536166654d6174683a206164646974696f6e206f766572666c6f770000000000604482015290519081900360640190fd5b600082611c01575060006107f0565b82820282848281611c0e57fe5b0414611ae35760405162461bcd60e51b815260040180806020018281038252602181526020018061253f6021913960400191505060405180910390fd5b6000611ae383836040518060400160405280601a81526020017f536166654d6174683a206469766973696f6e206279207a65726f000000000000815250612280565b600080611c9a84846119a3565b905080611cab5760009150506107f0565b6000610984826108ef87633b9aca00611bf2565b604080518082018252601981527f7472616e7366657228616464726573732c75696e74323536290000000000000060209182015281516001600160a01b0385811660248301526044808301869052845180840390910181526064909201845291810180516001600160e01b031663a9059cbb60e01b1781529251815160009460609489169392918291908083835b60208310611d6c5780518252601f199092019160209182019101611d4d565b6001836020036101000a0380198251168184511680821785525050505050509050019150506000604051808303816000865af19150503d8060008114611dce576040519150601f19603f3d011682016040523d82523d6000602084013e611dd3565b606091505b5091509150818015611e01575080511580611e015750808060200190516020811015611dfe57600080fd5b50515b611e52576040805162461bcd60e51b815260206004820152601c60248201527f5072696d697469766556323a205452414e534645525f4641494c454400000000604482015290519081900360640190fd5b5050505050565b60008060095460001480611e6d5750600854155b15611e7d575060009050806116a8565b6000611e8761089f565b9050611eb0611e9e670de0b6b3a764000083611aa1565b6108ef83670de0b6b3a7640000611bf2565b9050600080611ebe836122e5565b915067ffffffffffffffff16915080611ee057600080945094505050506116a8565b60006007546006546409a667e25960070b850381611efa57fe5b050190506000811280611f10575063ffffffff81135b15611f255760008095509550505050506116a8565b9450600193506116a892505050565b604080516024810184905260448082018490528251808303909101815260649091019091526020810180516001600160e01b031662d81ed360e71b179052611f7b906123a4565b5050565b60006003821115611fc2575080600160028204015b81811015611fbc57809150600281828581611fab57fe5b040181611fb457fe5b049050611f94565b50610fcf565b8115610fcf57506001919050565b600054611fdd9082611b98565b60009081556001600160a01b0383168152600160205260409020546120029082611b98565b6001600160a01b03831660008181526001602090815260408083209490945583518581529351929391927fddf252ad1be2c89b69c2b068fc378daa952ba7f163c4a11628f55a4df523b3ef9281900390910190a35050565b60008183106120695781611ae3565b5090919050565b6001600160a01b0382166000908152600160205260409020546120939082611aa1565b6001600160a01b038316600090815260016020526040812091909155546120ba9082611aa1565b60009081556040805183815290516001600160a01b038516917fddf252ad1be2c89b69c2b068fc378daa952ba7f163c4a11628f55a4df523b3ef919081900360200190a35050565b600080600954600014806121165750600854155b8061212b57506009548411801561212b575082155b1561213b575060009050806121e2565b6000612147858561092a565b905061215e611e9e670de0b6b3a764000083611aa1565b905060008061216c836122e5565b915067ffffffffffffffff1691508061218e57600080945094505050506121e2565b60006007546006546409a667e25960070b8503816121a857fe5b0501905060008112806121be575063ffffffff81135b156121d35760008095509550505050506121e2565b9450600193506121e292505050565b9250929050565b600081848411156122785760405162461bcd60e51b81526004018080602001828103825283818151815260200191508051906020019080838360005b8381101561223d578181015183820152602001612225565b50505050905090810190601f16801561226a5780820380516001836020036101000a031916815260200191505b509250505060405180910390fd5b505050900390565b600081836122cf5760405162461bcd60e51b815260206004820181815283516024840152835190928392604490910191908501908083836000831561223d578181015183820152602001612225565b5060008385816122db57fe5b0495945050505050565b600080677fffffffffffffff8311156123035750600090508061239f565b600061230e846123c5565b9050600081600f0b1361232857600080925092505061239f565b6000612333826123e3565b600f0b90506b3b9aca000000000000000000810260401d6f7fffffffffffffffffffffffffffffff1981128061237857506f7fffffffffffffffffffffffffffffff81135b1561238c576000809450945050505061239f565b6123958161241d565b6001945094505050505b915091565b80516a636f6e736f6c652e6c6f67602083016000808483855afa5050505050565b6000677fffffffffffffff8211156123dc57600080fd5b5060401b90565b60008082600f0b136123f457600080fd5b60806123ff83612439565b600f0b6fb17217f7d1cf79abc9e3b39803f2f6af02901c9050919050565b60008082600f0b121561242f57600080fd5b50600f0b60401d90565b60008082600f0b1361244a57600080fd5b6000600f83900b680100000000000000008112612469576040918201911d5b640100000000811261247d576020918201911d5b62010000811261248f576010918201911d5b61010081126124a0576008918201911d5b601081126124b0576004918201911d5b600481126124c0576002918201911d5b600281126124cf576001820191505b603f19820160401b600f85900b607f8490031b6780000000000000005b60008113156125125790800260ff81901c8281029390930192607f011c9060011d6124ec565b50909594505050505056fe5072696d697469766556323a2052455455524e45445f414d4f554e545f5a45524f536166654d6174683a206d756c7469706c69636174696f6e206f766572666c6f775072696d697469766556323a204e4f4e5f5245454e5452414e54000000000000a26469706673582212202e86f7a1c785d9c918731adf6eb845ca164dfd2ce0dad8f7e8523a57b539163564736f6c63430007000033",
  "linkReferences": {},
  "deployedLinkReferences": {}
}