{
  "_format": "hh-sol-artifact-1",
  "contractName": "PrimitiveAmm",
  "sourceName": "contracts/PrimitiveAmm.sol",
  "abi": [
    {
      "inputs": [],
      "stateMutability": "nonpayable",
      "type": "constructor"
    },
    {
      "anonymous": false,
      "inputs": [
        {
          "indexed": true,
          "internalType": "address",
          "name": "owner",
          "type": "address"
        },
        {
          "indexed": true,
          "internalType": "address",
          "name": "spender",
          "type": "address"
        },
        {
          "indexed": false,
          "internalType": "uint256",
          "name": "value",
          "type": "uint256"
        }
      ],
      "name": "Approval",
      "type": "event"
    },
    {
      "anonymous": false,
      "inputs": [
        {
          "indexed": true,
          "internalType": "address",
          "name": "from",
          "type": "address"
        },
        {
          "indexed": false,
          "internalType": "uint256",
          "name": "shortAmount",
          "type": "uint256"
        },
        {
          "indexed": false,
          "internalType": "uint256",
          "name": "underlyingAmount",
          "type": "uint256"
        },
        {
          "indexed": true,
          "internalType": "address",
          "name": "receiver",
          "type": "address"
        }
      ],
      "name": "Burn",
      "type": "event"
    },
    {
      "anonymous": false,
      "inputs": [
        {
          "indexed": true,
          "internalType": "address",
          "name": "from",
          "type": "address"
        },
        {
          "indexed": false,
          "internalType": "uint256",
          "name": "shortAmount",
          "type": "uint256"
        },
        {
          "indexed": false,
          "internalType": "uint256",
          "name": "underlyingAmount",
          "type": "uint256"
        }
      ],
      "name": "Mint",
      "type": "event"
    },
    {
      "anonymous": false,
      "inputs": [
        {
          "indexed": true,
          "internalType": "address",
          "name": "from",
          "type": "address"
        },
        {
          "indexed": false,
          "internalType": "uint256",
          "name": "shortAmount",
          "type": "uint256"
        },
        {
          "indexed": false,
          "internalType": "uint256",
          "name": "underlyingAmount",
          "type": "uint256"
        },
        {
          "indexed": true,
          "internalType": "address",
          "name": "receiver",
          "type": "address"
        }
      ],
      "name": "SwapFromShort",
      "type": "event"
    },
    {
      "anonymous": false,
      "inputs": [
        {
          "indexed": true,
          "internalType": "address",
          "name": "from",
          "type": "address"
        },
        {
          "indexed": false,
          "internalType": "uint256",
          "name": "shortAmount",
          "type": "uint256"
        },
        {
          "indexed": false,
          "internalType": "uint256",
          "name": "underlyingAmount",
          "type": "uint256"
        },
        {
          "indexed": true,
          "internalType": "address",
          "name": "receiver",
          "type": "address"
        }
      ],
      "name": "SwapToShort",
      "type": "event"
    },
    {
      "anonymous": false,
      "inputs": [
        {
          "indexed": true,
          "internalType": "address",
          "name": "from",
          "type": "address"
        },
        {
          "indexed": true,
          "internalType": "address",
          "name": "to",
          "type": "address"
        },
        {
          "indexed": false,
          "internalType": "uint256",
          "name": "value",
          "type": "uint256"
        }
      ],
      "name": "Transfer",
      "type": "event"
    },
    {
      "anonymous": false,
      "inputs": [
        {
          "indexed": false,
          "internalType": "uint256",
          "name": "postShortCache",
          "type": "uint256"
        },
        {
          "indexed": false,
          "internalType": "uint256",
          "name": "postUnderlyingCache",
          "type": "uint256"
        }
      ],
      "name": "UpdatedCaches",
      "type": "event"
    },
    {
      "inputs": [],
      "name": "DOMAIN_SEPARATOR",
      "outputs": [
        {
          "internalType": "bytes32",
          "name": "",
          "type": "bytes32"
        }
      ],
      "stateMutability": "view",
      "type": "function"
    },
    {
      "inputs": [],
      "name": "PERMIT_TYPEHASH",
      "outputs": [
        {
          "internalType": "bytes32",
          "name": "",
          "type": "bytes32"
        }
      ],
      "stateMutability": "view",
      "type": "function"
    },
    {
      "inputs": [
        {
          "internalType": "address",
          "name": "",
          "type": "address"
        },
        {
          "internalType": "address",
          "name": "",
          "type": "address"
        }
      ],
      "name": "allowance",
      "outputs": [
        {
          "internalType": "uint256",
          "name": "",
          "type": "uint256"
        }
      ],
      "stateMutability": "view",
      "type": "function"
    },
    {
      "inputs": [],
      "name": "anchor",
      "outputs": [
        {
          "internalType": "int256",
          "name": "",
          "type": "int256"
        }
      ],
      "stateMutability": "view",
      "type": "function"
    },
    {
      "inputs": [
        {
          "internalType": "address",
          "name": "spender",
          "type": "address"
        },
        {
          "internalType": "uint256",
          "name": "value",
          "type": "uint256"
        }
      ],
      "name": "approve",
      "outputs": [
        {
          "internalType": "bool",
          "name": "",
          "type": "bool"
        }
      ],
      "stateMutability": "nonpayable",
      "type": "function"
    },
    {
      "inputs": [
        {
          "internalType": "address",
          "name": "",
          "type": "address"
        }
      ],
      "name": "balanceOf",
      "outputs": [
        {
          "internalType": "uint256",
          "name": "",
          "type": "uint256"
        }
      ],
      "stateMutability": "view",
      "type": "function"
    },
    {
      "inputs": [
        {
          "internalType": "address",
          "name": "receiver",
          "type": "address"
        }
      ],
      "name": "burn",
      "outputs": [
        {
          "internalType": "uint256",
          "name": "shortAmount",
          "type": "uint256"
        },
        {
          "internalType": "uint256",
          "name": "underlyingAmount",
          "type": "uint256"
        }
      ],
      "stateMutability": "nonpayable",
      "type": "function"
    },
    {
      "inputs": [],
      "name": "decimals",
      "outputs": [
        {
          "internalType": "uint8",
          "name": "",
          "type": "uint8"
        }
      ],
      "stateMutability": "view",
      "type": "function"
    },
    {
      "inputs": [],
      "name": "getCaches",
      "outputs": [
        {
          "internalType": "uint256",
          "name": "",
          "type": "uint256"
        },
        {
          "internalType": "uint256",
          "name": "",
          "type": "uint256"
        }
      ],
      "stateMutability": "view",
      "type": "function"
    },
    {
      "inputs": [
        {
          "internalType": "uint256",
          "name": "amount",
          "type": "uint256"
        }
      ],
      "name": "getExchangeRateIn",
      "outputs": [
        {
          "internalType": "uint256",
          "name": "",
          "type": "uint256"
        }
      ],
      "stateMutability": "view",
      "type": "function"
    },
    {
      "inputs": [
        {
          "internalType": "uint256",
          "name": "amount",
          "type": "uint256"
        }
      ],
      "name": "getExchangeRateOut",
      "outputs": [
        {
          "internalType": "uint256",
          "name": "",
          "type": "uint256"
        }
      ],
      "stateMutability": "view",
      "type": "function"
    },
    {
      "inputs": [],
      "name": "getProportion",
      "outputs": [
        {
          "internalType": "uint256",
          "name": "",
          "type": "uint256"
        }
      ],
      "stateMutability": "view",
      "type": "function"
    },
    {
      "inputs": [
        {
          "internalType": "uint256",
          "name": "amount",
          "type": "uint256"
        }
      ],
      "name": "getShortProportionIn",
      "outputs": [
        {
          "internalType": "uint256",
          "name": "",
          "type": "uint256"
        }
      ],
      "stateMutability": "view",
      "type": "function"
    },
    {
      "inputs": [
        {
          "internalType": "uint256",
          "name": "amount",
          "type": "uint256"
        }
      ],
      "name": "getShortProportionOut",
      "outputs": [
        {
          "internalType": "uint256",
          "name": "",
          "type": "uint256"
        }
      ],
      "stateMutability": "view",
      "type": "function"
    },
    {
      "inputs": [
        {
          "internalType": "uint256",
          "name": "shortAmount",
          "type": "uint256"
        }
      ],
      "name": "getShortToUnderlyingQuote",
      "outputs": [
        {
          "internalType": "uint256",
          "name": "",
          "type": "uint256"
        }
      ],
      "stateMutability": "view",
      "type": "function"
    },
    {
      "inputs": [],
      "name": "getSpotExchangeRate",
      "outputs": [
        {
          "internalType": "uint256",
          "name": "",
          "type": "uint256"
        }
      ],
      "stateMutability": "view",
      "type": "function"
    },
    {
      "inputs": [],
      "name": "getSpotRate",
      "outputs": [
        {
          "internalType": "uint256",
          "name": "",
          "type": "uint256"
        }
      ],
      "stateMutability": "view",
      "type": "function"
    },
    {
      "inputs": [
        {
          "internalType": "uint256",
          "name": "shortAmount",
          "type": "uint256"
        }
      ],
      "name": "getUnderlyingToShortQuote",
      "outputs": [
        {
          "internalType": "uint256",
          "name": "",
          "type": "uint256"
        }
      ],
      "stateMutability": "view",
      "type": "function"
    },
    {
      "inputs": [
        {
          "internalType": "address",
          "name": "shortToken_",
          "type": "address"
        },
        {
          "internalType": "address",
          "name": "underlyingToken_",
          "type": "address"
        },
        {
          "internalType": "uint256",
          "name": "scalar_",
          "type": "uint256"
        },
        {
          "internalType": "uint256",
          "name": "anchor_",
          "type": "uint256"
        }
      ],
      "name": "initialize",
      "outputs": [],
      "stateMutability": "nonpayable",
      "type": "function"
    },
    {
      "inputs": [],
      "name": "liquidityFee",
      "outputs": [
        {
          "internalType": "uint32",
          "name": "",
          "type": "uint32"
        }
      ],
      "stateMutability": "view",
      "type": "function"
    },
    {
      "inputs": [
        {
          "internalType": "address",
          "name": "receiver",
          "type": "address"
        }
      ],
      "name": "mint",
      "outputs": [
        {
          "internalType": "uint256",
          "name": "liquidity",
          "type": "uint256"
        }
      ],
      "stateMutability": "nonpayable",
      "type": "function"
    },
    {
      "inputs": [],
      "name": "name",
      "outputs": [
        {
          "internalType": "string",
          "name": "",
          "type": "string"
        }
      ],
      "stateMutability": "view",
      "type": "function"
    },
    {
      "inputs": [
        {
          "internalType": "address",
          "name": "",
          "type": "address"
        }
      ],
      "name": "nonces",
      "outputs": [
        {
          "internalType": "uint256",
          "name": "",
          "type": "uint256"
        }
      ],
      "stateMutability": "view",
      "type": "function"
    },
    {
      "inputs": [
        {
          "internalType": "address",
          "name": "owner",
          "type": "address"
        },
        {
          "internalType": "address",
          "name": "spender",
          "type": "address"
        },
        {
          "internalType": "uint256",
          "name": "value",
          "type": "uint256"
        },
        {
          "internalType": "uint256",
          "name": "deadline",
          "type": "uint256"
        },
        {
          "internalType": "uint8",
          "name": "v",
          "type": "uint8"
        },
        {
          "internalType": "bytes32",
          "name": "r",
          "type": "bytes32"
        },
        {
          "internalType": "bytes32",
          "name": "s",
          "type": "bytes32"
        }
      ],
      "name": "permit",
      "outputs": [],
      "stateMutability": "nonpayable",
      "type": "function"
    },
    {
      "inputs": [],
      "name": "scalar",
      "outputs": [
        {
          "internalType": "int256",
          "name": "",
          "type": "int256"
        }
      ],
      "stateMutability": "view",
      "type": "function"
    },
    {
      "inputs": [],
      "name": "shortCache",
      "outputs": [
        {
          "internalType": "uint256",
          "name": "",
          "type": "uint256"
        }
      ],
      "stateMutability": "view",
      "type": "function"
    },
    {
      "inputs": [],
      "name": "shortToken",
      "outputs": [
        {
          "internalType": "address",
          "name": "",
          "type": "address"
        }
      ],
      "stateMutability": "view",
      "type": "function"
    },
    {
      "inputs": [
        {
          "internalType": "uint256",
          "name": "amountShortIn",
          "type": "uint256"
        },
        {
          "internalType": "address",
          "name": "receiver",
          "type": "address"
        }
      ],
      "name": "swapShortToUnderlying",
      "outputs": [
        {
          "internalType": "uint256",
          "name": "",
          "type": "uint256"
        },
        {
          "internalType": "bool",
          "name": "",
          "type": "bool"
        }
      ],
      "stateMutability": "nonpayable",
      "type": "function"
    },
    {
      "inputs": [
        {
          "internalType": "uint256",
          "name": "amountShortOut",
          "type": "uint256"
        },
        {
          "internalType": "address",
          "name": "receiver",
          "type": "address"
        }
      ],
      "name": "swapUnderlyingToShort",
      "outputs": [
        {
          "internalType": "uint256",
          "name": "",
          "type": "uint256"
        },
        {
          "internalType": "bool",
          "name": "",
          "type": "bool"
        }
      ],
      "stateMutability": "nonpayable",
      "type": "function"
    },
    {
      "inputs": [],
      "name": "symbol",
      "outputs": [
        {
          "internalType": "string",
          "name": "",
          "type": "string"
        }
      ],
      "stateMutability": "view",
      "type": "function"
    },
    {
      "inputs": [],
      "name": "totalSupply",
      "outputs": [
        {
          "internalType": "uint256",
          "name": "",
          "type": "uint256"
        }
      ],
      "stateMutability": "view",
      "type": "function"
    },
    {
      "inputs": [
        {
          "internalType": "address",
          "name": "to",
          "type": "address"
        },
        {
          "internalType": "uint256",
          "name": "value",
          "type": "uint256"
        }
      ],
      "name": "transfer",
      "outputs": [
        {
          "internalType": "bool",
          "name": "",
          "type": "bool"
        }
      ],
      "stateMutability": "nonpayable",
      "type": "function"
    },
    {
      "inputs": [
        {
          "internalType": "address",
          "name": "from",
          "type": "address"
        },
        {
          "internalType": "address",
          "name": "to",
          "type": "address"
        },
        {
          "internalType": "uint256",
          "name": "value",
          "type": "uint256"
        }
      ],
      "name": "transferFrom",
      "outputs": [
        {
          "internalType": "bool",
          "name": "",
          "type": "bool"
        }
      ],
      "stateMutability": "nonpayable",
      "type": "function"
    },
    {
      "inputs": [],
      "name": "underlyingCache",
      "outputs": [
        {
          "internalType": "uint256",
          "name": "",
          "type": "uint256"
        }
      ],
      "stateMutability": "view",
      "type": "function"
    },
    {
      "inputs": [],
      "name": "underlyingToken",
      "outputs": [
        {
          "internalType": "address",
          "name": "",
          "type": "address"
        }
      ],
      "stateMutability": "view",
      "type": "function"
    },
    {
      "inputs": [],
      "name": "updateCacheBalances",
      "outputs": [],
      "stateMutability": "nonpayable",
      "type": "function"
    }
  ],
  "bytecode": "0x60806040526001600c5534801561001557600080fd5b50604080518082018252600c81526b5072696d697469766520563160a01b6020918201528151808301835260018152603160f81b9082015281517f8b73c3c69bb8fe3d512ecc4cf759cc79239f7b179b0ffacaa9a75d522b39400f818301527f662beda4fa4ec91056b67d9dd233c1a4363ea4b40c5c0824ddaa9721dfc09545818401527fc89efdaa54c0f20c7adf612882df0950f5a951637e0307cdcb4c672f298b8bc660608201524660808201523060a0808301919091528351808303909101815260c0909101909252815191012060035561254b806100f86000396000f3fe608060405234801561001057600080fd5b506004361061021c5760003560e01c806370a0823111610125578063a9059cbb116100ad578063dd62ed3e1161007c578063dd62ed3e1461061b578063e3065da714610649578063eb990c5914610651578063ecc1f5021461068d578063f45e65d8146106aa5761021c565b8063a9059cbb14610579578063b4dcb453146105a5578063d3fb73b4146105c2578063d505accf146105ca5761021c565b806389afcb44116100f457806389afcb44146104ec5780638b8a15951461052b57806395d89b411461054857806398118cb4146105505780639cc5d5cc146105715761021c565b806370a08231146104905780637a4fe387146104b65780637ecebe00146104be57806389338da2146104e45761021c565b8063313ce567116101a85780634752ad5b116101775780634752ad5b146104205780635599a172146104285780636161d79814610445578063629d3b70146104625780636a6278421461046a5761021c565b8063313ce567146103895780633644e515146103a75780633e335efe146103af57806346d83ad5146103f45761021c565b806318160ddd116101ef57806318160ddd1461031757806323b872dd1461031f5780632495a59914610355578063262c643b1461037957806330adf81f146103815761021c565b806302a5fea21461022157806306fdde031461022b5780630772f862146102a8578063095ea7b3146102d7575b600080fd5b6102296106b2565b005b6102336107f7565b6040805160208082528351818301528351919283929083019185019080838360005b8381101561026d578181015183820152602001610255565b50505050905090810190601f16801561029a5780820380516001836020036101000a031916815260200191505b509250505060405180910390f35b6102c5600480360360208110156102be57600080fd5b503561081f565b60408051918252519081900360200190f35b610303600480360360408110156102ed57600080fd5b506001600160a01b038135169060200135610838565b604080519115158252519081900360200190f35b6102c561084f565b6103036004803603606081101561033557600080fd5b506001600160a01b03813581169160208101359091169060400135610855565b61035d6108ea565b604080516001600160a01b039092168252519081900360200190f35b6102c56108f9565b6102c5610955565b610391610979565b6040805160ff9092168252519081900360200190f35b6102c561097e565b6103db600480360360408110156103c557600080fd5b50803590602001356001600160a01b0316610984565b6040805192835290151560208301528051918290030190f35b6103db6004803603604081101561040a57600080fd5b50803590602001356001600160a01b0316610ca5565b6102c5610f85565b6102c56004803603602081101561043e57600080fd5b5035610f9b565b6102c56004803603602081101561045b57600080fd5b5035610fbe565b6102c5610fc9565b6102c56004803603602081101561048057600080fd5b50356001600160a01b0316611012565b6102c5600480360360208110156104a657600080fd5b50356001600160a01b03166112ae565b6102c56112c0565b6102c5600480360360208110156104d457600080fd5b50356001600160a01b03166112c6565b6102c56112d8565b6105126004803603602081101561050257600080fd5b50356001600160a01b03166112de565b6040805192835260208301919091528051918290030190f35b6102c56004803603602081101561054157600080fd5b5035611647565b610233611652565b610558611674565b6040805163ffffffff9092168252519081900360200190f35b610512611680565b6103036004803603604081101561058f57600080fd5b506001600160a01b03813516906020013561168a565b6102c5600480360360208110156105bb57600080fd5b5035611697565b6102c56116a8565b610229600480360360e08110156105e057600080fd5b506001600160a01b03813581169160208101359091169060408101359060608101359060ff6080820135169060a08101359060c001356116ae565b6102c56004803603604081101561063157600080fd5b506001600160a01b03813581169160200135166118b2565b61035d6118cf565b6102296004803603608081101561066757600080fd5b506001600160a01b038135811691602081013590911690604081013590606001356118de565b6102c5600480360360208110156106a357600080fd5b50356119a1565b6102c56119c4565b600c546001146106f7576040805162461bcd60e51b815260206004820152601a60248201526000805160206124f6833981519152604482015290519081900360640190fd5b6000600c55600a54604080516370a0823160e01b815230600482015290516107f0926001600160a01b0316916370a08231916024808301926020929190829003018186803b15801561074857600080fd5b505afa15801561075c573d6000803e3d6000fd5b505050506040513d602081101561077257600080fd5b5051600b54604080516370a0823160e01b815230600482015290516001600160a01b03909216916370a0823191602480820192602092909190829003018186803b1580156107bf57600080fd5b505afa1580156107d3573d6000803e3d6000fd5b505050506040513d60208110156107e957600080fd5b50516119ca565b6001600c55565b6040518060400160405280600c81526020016b5072696d697469766520563160a01b81525081565b600061083082600954600854611a13565b90505b919050565b6000610845338484611a4a565b5060015b92915050565b60005481565b6001600160a01b0383166000908152600260209081526040808320338452909152812054600019146108d4576001600160a01b03841660009081526002602090815260408083203384529091529020546108af9083611aac565b6001600160a01b03851660009081526002602090815260408083203384529091529020555b6108df848484611aee565b5060015b9392505050565b600b546001600160a01b031681565b6000600954600014801561090d5750600854155b1561091a57506000610952565b61094f610934600854600954611b9c90919063ffffffff16565b60095461094990670de0b6b3a7640000611bf6565b90611c4f565b90505b90565b7f6e71edae12b1b97f4d1f60370fef10105fa2faae0126114a169c64845d6126c981565b601281565b60035481565b600080600c546001146109cc576040805162461bcd60e51b815260206004820152601a60248201526000805160206124f6833981519152604482015290519081900360640190fd5b6000600c5583610a1e576040805162461bcd60e51b81526020600482015260186024820152775072696d697469766556323a20414d4f554e545f5a45524f60401b604482015290519081900360640190fd5b600080610a29611680565b915091506000806000610a3b89611c91565b600a54909150610a55906001600160a01b0316898b611cb8565b600a54604080516370a0823160e01b815230600482015290516001600160a01b03909216916370a0823191602480820192602092909190829003018186803b158015610aa057600080fd5b505afa158015610ab4573d6000803e3d6000fd5b505050506040513d6020811015610aca57600080fd5b5051600b54604080516370a0823160e01b815230600482015290519295506001600160a01b03909116916370a0823191602480820192602092909190829003018186803b158015610b1a57600080fd5b505afa158015610b2e573d6000803e3d6000fd5b505050506040513d6020811015610b4457600080fd5b5051915060008986038411610b5a576000610b60565b89860384035b90506000858411610b72576000610b76565b8584035b90506000821180610b875750600081115b610bc25760405162461bcd60e51b81526004018080602001828103825260218152602001806124b46021913960400191505060405180910390fd5b600554610be590610bde908d9063ffffffff90811690611c4f16565b8c90611b9c565b82101580610bf35750828110155b610c3d576040805162461bcd60e51b8152602060048201526016602482015275141c9a5b5a5d1a5d99558c8e8812539590549250539560521b604482015290519081900360640190fd5b610c4785856119ca565b604080518c81526020810185905281516001600160a01b038d169233927fab082dc6909985db4af3c5421614b5dd736ca3ccb783894aae8803ce466410c1929081900390910190a3505050505050506001600c819055509250929050565b600080600c54600114610ced576040805162461bcd60e51b815260206004820152601a60248201526000805160206124f6833981519152604482015290519081900360640190fd5b6000600c5583610d3f576040805162461bcd60e51b81526020600482015260186024820152775072696d697469766556323a20414d4f554e545f5a45524f60401b604482015290519081900360640190fd5b600080610d4a611680565b915091506000806000610d5c89611e52565b600b54909150610d76906001600160a01b03168983611cb8565b600a54604080516370a0823160e01b815230600482015290516001600160a01b03909216916370a0823191602480820192602092909190829003018186803b158015610dc157600080fd5b505afa158015610dd5573d6000803e3d6000fd5b505050506040513d6020811015610deb57600080fd5b5051600b54604080516370a0823160e01b815230600482015290519295506001600160a01b03909116916370a0823191602480820192602092909190829003018186803b158015610e3b57600080fd5b505afa158015610e4f573d6000803e3d6000fd5b505050506040513d6020811015610e6557600080fd5b505191506000858411610e79576000610e7d565b8584035b905060008286038411610e91576000610e97565b82860384035b90506000821180610ea85750600081115b610ee35760405162461bcd60e51b81526004018080602001828103825260218152602001806124b46021913960400191505060405180910390fd5b8a82101580610f145750600554610f1090610f0990859063ffffffff90811690611c4f16565b8490611b9c565b8110155b610f1d57600080fd5b610f2785856119ca565b604080518c81526020810185905281516001600160a01b038d169233927fe56315338dde9f47729c121942dbefbe20b507d31f6b4872536e2e79444664fd929081900390910190a3505050505050506001600c819055509250929050565b600061094f600754600654600954600854611e5e565b600080610fa783611e9d565b6005549091506108e390829063ffffffff16611eb4565b600061083082611c91565b600080610fd4610f85565b905080610fe5576000915050610952565b6000610ff9670de0b6b3a764000083611c4f565b905080611004611ec1565b63ffffffff16039250505090565b6000600c54600114611059576040805162461bcd60e51b815260206004820152601a60248201526000805160206124f6833981519152604482015290519081900360640190fd5b6000600c81905580611069611680565b600a54604080516370a0823160e01b815230600482015290519395509193506000926001600160a01b03909116916370a08231916024808301926020929190829003018186803b1580156110bc57600080fd5b505afa1580156110d0573d6000803e3d6000fd5b505050506040513d60208110156110e657600080fd5b5051600b54604080516370a0823160e01b815230600482015290519293506000926001600160a01b03909216916370a0823191602480820192602092909190829003018186803b15801561113957600080fd5b505afa15801561114d573d6000803e3d6000fd5b505050506040513d602081101561116357600080fd5b5051905060006111738386611aac565b905060006111818386611aac565b600054909150806111c8576111af611197611ec9565b6111a96111a48686611bf6565b611ecf565b90611aac565b97506111c360006111be611ec9565b611eda565b6111f9565b6111f6876111d68584611bf6565b816111dd57fe5b04876111e98585611bf6565b816111f057fe5b04611f64565b97505b6000881161124e576040805162461bcd60e51b815260206004820152601b60248201527f5072696d697469766556323a204c49515549444954595f5a45524f0000000000604482015290519081900360640190fd5b6112588989611eda565b61126285856119ca565b6040805184815260208101849052815133927f4c209b5fc8ad50758f13e2e1088ba56a560dff690a1c6fef26394f4c03821c4f928290030190a250506001600c55509395945050505050565b60016020526000908152604090205481565b60085481565b60046020526000908152604090205481565b60095481565b600080600c54600114611326576040805162461bcd60e51b815260206004820152601a60248201526000805160206124f6833981519152604482015290519081900360640190fd5b6000600c81905580611336611680565b600a54600b54604080516370a0823160e01b815230600482015290519496509294506001600160a01b039182169391169160009184916370a08231916024808301926020929190829003018186803b15801561139157600080fd5b505afa1580156113a5573d6000803e3d6000fd5b505050506040513d60208110156113bb57600080fd5b5051604080516370a0823160e01b815230600482015290519192506000916001600160a01b038516916370a08231916024808301926020929190829003018186803b15801561140957600080fd5b505afa15801561141d573d6000803e3d6000fd5b505050506040513d602081101561143357600080fd5b505130600090815260016020526040812054905491925090806114568386611bf6565b8161145d57fe5b0499508061146b8385611bf6565b8161147257fe5b04985060008a1180156114855750600089115b6114d6576040805162461bcd60e51b815260206004820152601860248201527f5072696d697469766556323a205a45524f5f4255524e45440000000000000000604482015290519081900360640190fd5b6114e03083611f70565b6114eb868c8c611cb8565b6114f6858c8b611cb8565b604080516370a0823160e01b815230600482015290516001600160a01b038816916370a08231916024808301926020929190829003018186803b15801561153c57600080fd5b505afa158015611550573d6000803e3d6000fd5b505050506040513d602081101561156657600080fd5b5051604080516370a0823160e01b815230600482015290519195506001600160a01b038716916370a0823191602480820192602092909190829003018186803b1580156115b257600080fd5b505afa1580156115c6573d6000803e3d6000fd5b505050506040513d60208110156115dc57600080fd5b505192506115ea84846119ca565b604080518b8152602081018b905281516001600160a01b038e169233927fdccd412f0b1252819cb1fd330b93224ca42612892bb3f4f789976e6d81936496929081900390910190a350505050505050506001600c81905550915091565b600061083082611e52565b6040518060400160405280600681526020016550524d2d563160d01b81525081565b60055463ffffffff1681565b6009546008549091565b6000610845338484611aee565b600061083082600954600854612002565b60075481565b428410156116fa576040805162461bcd60e51b8152602060048201526014602482015273141c9a5b5a5d1a5d99558c4e881156141254915160621b604482015290519081900360640190fd5b6003546001600160a01b0380891660008181526004602090815260408083208054600180820190925582517f6e71edae12b1b97f4d1f60370fef10105fa2faae0126114a169c64845d6126c98186015280840196909652958d166060860152608085018c905260a085019590955260c08085018b90528151808603909101815260e08501825280519083012061190160f01b6101008601526101028501969096526101228085019690965280518085039096018652610142840180825286519683019690962095839052610162840180825286905260ff89166101828501526101a284018890526101c28401879052519193926101e280820193601f1981019281900390910190855afa158015611815573d6000803e3d6000fd5b5050604051601f1901519150506001600160a01b0381161580159061184b5750886001600160a01b0316816001600160a01b0316145b61189c576040805162461bcd60e51b815260206004820152601e60248201527f5072696d697469766556313a20494e56414c49445f5349474e41545552450000604482015290519081900360640190fd5b6118a7898989611a4a565b505050505050505050565b600260209081526000928352604080842090915290825290205481565b600a546001600160a01b031681565b6008541580156118ee5750600954155b61193f576040805162461bcd60e51b815260206004820152601860248201527f5072696d697469766556323a20494e495449414c495a45440000000000000000604482015290519081900360640190fd5b600a80546001600160a01b038087166001600160a01b031992831617909255600b8054928616929091169190911790556006829055600781905561198161200f565b6005805463ffffffff191663ffffffff9290921691909117905550505050565b6000806119ad83612016565b6005549091506108e390829063ffffffff1661202d565b60065481565b60098290556008819055604080518381526020810183905281517f691822b70f33953c5c34dc4097518d946130c893dca23eb3e2044a4661de48e6929181900390910190a15050565b600080611a208486611aac565b9050611a41611a2f8585611b9c565b61094983670de0b6b3a7640000611bf6565b95945050505050565b6001600160a01b03808416600081815260026020908152604080832094871680845294825291829020859055815185815291517f8c5be1e5ebec7d5bd14f71427d1e84f3dd0314c0f7b2291e5b200ac8c7c3b9259281900390910190a3505050565b60006108e383836040518060400160405280601e81526020017f536166654d6174683a207375627472616374696f6e206f766572666c6f77000081525061203a565b6001600160a01b038316600090815260016020526040902054611b119082611aac565b6001600160a01b038085166000908152600160205260408082209390935590841681522054611b409082611b9c565b6001600160a01b0380841660008181526001602090815260409182902094909455805185815290519193928716927fddf252ad1be2c89b69c2b068fc378daa952ba7f163c4a11628f55a4df523b3ef92918290030190a3505050565b6000828201838110156108e3576040805162461bcd60e51b815260206004820152601b60248201527f536166654d6174683a206164646974696f6e206f766572666c6f770000000000604482015290519081900360640190fd5b600082611c0557506000610849565b82820282848281611c1257fe5b04146108e35760405162461bcd60e51b81526004018080602001828103825260218152602001806124d56021913960400191505060405180910390fd5b60006108e383836040518060400160405280601a81526020017f536166654d6174683a206469766973696f6e206279207a65726f0000000000008152506120d1565b600080611c9d83610f9b565b905080611cae576000915050610833565b6108e38382612136565b604080518082018252601981527f7472616e7366657228616464726573732c75696e74323536290000000000000060209182015281516001600160a01b0385811660248301526044808301869052845180840390910181526064909201845291810180516001600160e01b031663a9059cbb60e01b1781529251815160009460609489169392918291908083835b60208310611d655780518252601f199092019160209182019101611d46565b6001836020036101000a0380198251168184511680821785525050505050509050019150506000604051808303816000865af19150503d8060008114611dc7576040519150601f19603f3d011682016040523d82523d6000602084013e611dcc565b606091505b5091509150818015611dfa575080511580611dfa5750808060200190516020811015611df757600080fd5b50515b611e4b576040805162461bcd60e51b815260206004820152601c60248201527f5072696d697469766556323a205452414e534645525f4641494c454400000000604482015290519081900360640190fd5b5050505050565b600080611c9d836119a1565b600080611e80611e6e8585611b9c565b61094986670de0b6b3a7640000611bf6565b9050611e8d86828761214a565b63ffffffff169695505050505050565b6000610830600754600654846009546008546121de565b63ffffffff919091160390565b633b9aca0090565b6103e890565b600061083082612227565b600054611ee79082611b9c565b60009081556001600160a01b038316815260016020526040902054611f0c9082611b9c565b6001600160a01b03831660008181526001602090815260408083209490945583518581529351929391927fddf252ad1be2c89b69c2b068fc378daa952ba7f163c4a11628f55a4df523b3ef9281900390910190a35050565b60006108e38383612278565b6001600160a01b038216600090815260016020526040902054611f939082611aac565b6001600160a01b03831660009081526001602052604081209190915554611fba9082611aac565b60009081556040805183815290516001600160a01b038516917fddf252ad1be2c89b69c2b068fc378daa952ba7f163c4a11628f55a4df523b3ef919081900360200190a35050565b600080611a208486611b9c565b6203d09090565b60006108306007546006548460095460085461228e565b63ffffffff919091160190565b600081848411156120c95760405162461bcd60e51b81526004018080602001828103825283818151815260200191508051906020019080838360005b8381101561208e578181015183820152602001612076565b50505050905090810190601f1680156120bb5780820380516001836020036101000a031916815260200191505b509250505060405180910390fd5b505050900390565b600081836121205760405162461bcd60e51b815260206004820181815283516024840152835190928392604490910191908501908083836000831561208e578181015183820152602001612076565b50600083858161212c57fe5b0495945050505050565b60006108e38261094985633b9aca00611bf6565b6000612173612161670de0b6b3a764000085611aac565b61094985670de0b6b3a7640000611bf6565b92506000612180846122b5565b67ffffffffffffffff1690508061219b5760009150506108e3565b600085846409a667e258198401816121af57fe5b0501905060008112806121c5575063ffffffff81135b156121d5576000925050506108e3565b91506108e39050565b60008215806121eb575081155b806121f557508284115b1561220257506000611a41565b600061220f858585611a13565b905061221c87828861214a565b979650505050505050565b6000600382111561226a575080600160028204015b818110156122645780915060028182858161225357fe5b04018161225c57fe5b04905061223c565b50610833565b811561083357506001919050565b600081831061228757816108e3565b5090919050565b600082158061229b575081155b156122a857506000611a41565b600061220f858585612002565b6000677fffffffffffffff8211156122cf57506000610833565b60006122da8361235b565b9050600081600f0b136122f1576000915050610833565b60006122fc82612379565b600f0b90506b3b9aca000000000000000000810260401d6f7fffffffffffffffffffffffffffffff1981128061234157506f7fffffffffffffffffffffffffffffff81135b156123525760009350505050610833565b611a41816123b3565b6000677fffffffffffffff82111561237257600080fd5b5060401b90565b60008082600f0b1361238a57600080fd5b6080612395836123cf565b600f0b6fb17217f7d1cf79abc9e3b39803f2f6af02901c9050919050565b60008082600f0b12156123c557600080fd5b50600f0b60401d90565b60008082600f0b136123e057600080fd5b6000600f83900b6801000000000000000081126123ff576040918201911d5b6401000000008112612413576020918201911d5b620100008112612425576010918201911d5b6101008112612436576008918201911d5b60108112612446576004918201911d5b60048112612456576002918201911d5b60028112612465576001820191505b603f19820160401b600f85900b607f8490031b6780000000000000005b60008113156124a85790800260ff81901c8281029390930192607f011c9060011d612482565b50909594505050505056fe5072696d697469766556323a2052455455524e45445f414d4f554e545f5a45524f536166654d6174683a206d756c7469706c69636174696f6e206f766572666c6f775072696d697469766556323a204e4f4e5f5245454e5452414e54000000000000a26469706673582212205aa9378da2096e0b324bdc547c9c84b9aa3b508365e8fd4e7ef0c4d8169e960764736f6c63430007010033",
  "linkReferences": {},
  "deployedLinkReferences": {}
}